:020000040800F2
:10000000000002208D290008352700083D27000840
:10001000452700084D27000855270008000000006C
:10002000000000000000000000000000A17C0008AB
:100030005D27000800000000817D0008216E000897
:10004000DD290008DD290008DD290008DD29000878
:10005000DD290008DD2900086B270008DD290008DC
:10006000DD290008DD290008DD290008DD29000858
:10007000DD290008DD290008DD290008DD29000848
:10008000DD290008DD2900087927000800000000AC
:10009000000000000000000000000000DD29000852
:1000A000DD2900088D270008A1270008DD290008A8
:1000B000DD290008DD290008B5270008DD29000832
:1000C000DD290008DD290008DD290008DD290008F8
:1000D000DD290008C9270008DD290008000000000C
:1000E000DD290008DD290008DD29000800000000E6
:1000F000000000000000000000000000DD290008F2
:1001000000000000DD290008DD290008DD290008C5
:1001100000000000000000000000000000000000DF
:10012000DD290008DD290008DD290008DD29000897
:10013000DD290008000000000000000000000000B1
:10014000000000000000000000000000DD290008A1
:10015000DD290008DD290008DD290008DD29000867
:10016000DD290008DD290008000000000000000073
:10017000000000000000000000000000000000007F
:1001800000000000DD290008000000000000000061
:08019000DD290008DD2900084B
:1001A00010B5054C237833B9044B13B10448AFF3B1
:1001B00000800123237010BD2402002000000000F5
:1001C000E0CD000808B5034B1BB103490348AFF36A
:1001D000008008BD0000000028020020E0CD0008DB
:1001E00001F0FF01102A2BDB10F0070F08D010F8E8
:1001F000013B013A8B422DD010F0070F42B3F6D1EC
:10020000F0B441EA012141EA014122F007047FF004
:1002100000070023F0E80256083C85EA010586EA5B
:10022000010685FA47F5A3FA87F586FA47F6A5FA97
:1002300087F68EB9EED1F0BC01F0FF0102F00702A3
:1002400032B110F8013B013A83EA010313B1F8D14E
:100250000020704701387047002D06BF354603382F
:10026000073815F0010F07D1013015F4807F02BF68
:10027000013015F4C03F0130F0BC0138704700BFB9
:10028000034613F8012B002AFBD1181A01387047D6
:1002900081F0004102E000BF83F0004330B54FEA37
:1002A00041044FEA430594EA050F08BF90EA020FA4
:1002B0001FBF54EA000C55EA020C7FEA645C7FEA37
:1002C000655C00F0E2804FEA5454D4EB5555B8BF5A
:1002D0006D420CDD2C4480EA020281EA030382EACB
:1002E000000083EA010180EA020281EA0303362D5D
:1002F00088BF30BD11F0004F4FEA01314FF4801C30
:100300004CEA113102D0404261EB410113F0004F41
:100310004FEA03334CEA133302D0524263EB4303F8
:1003200094EA050F00F0A780A4F10104D5F1200E96
:100330000DDB02FA0EFC22FA05F2801841F10001F1
:1003400003FA0EF2801843FA05F359410EE0A5F1C5
:1003500020050EF1200E012A03FA0EFC28BF4CF0F6
:10036000020C43FA05F3C01851EBE37101F00045AC
:1003700007D54FF0000EDCF1000C7EEB00006EEBB9
:100380000101B1F5801F1BD3B1F5001F0CD3490843
:100390005FEA30004FEA3C0C04F101044FEA44529A
:1003A00012F5800F80F09A80BCF1004F08BF5FEA21
:1003B000500C50F1000041EB045141EA050130BD01
:1003C0005FEA4C0C404141EB0101013C28BFB1F513
:1003D000801FE9D291F0000F04BF01460020B1FA5E
:1003E00081F308BF2033A3F10B03B3F120020CDA31
:1003F0000C3208DD02F1140CC2F10C0201FA0CF00F
:1004000021FA02F10CE002F11402D8BFC2F1200C73
:1004100001FA02F120FA0CFCDCBF41EA0C01904029
:10042000E41AA2BF01EB0451294330BD6FEA040472
:100430001F3C1CDA0C340EDC04F11404C4F120025D
:1004400020FA04F001FA02F340EA030021FA04F36F
:1004500045EA030130BDC4F10C04C4F1200220FAC6
:1004600002F001FA04F340EA0300294630BD21FA04
:1004700004F0294630BD94F0000F83F4801306BFCA
:1004800081F480110134013D4EE77FEA645C18BFBE
:100490007FEA655C29D094EA050F08BF90EA020F55
:1004A00005D054EA000C04BF1946104630BD91EA4D
:1004B000030F1EBF0021002030BD5FEA545C05D150
:1004C0004000494128BF41F0004130BD14F580048F
:1004D0003CBF01F5801130BD01F0004545F0FE4103
:1004E00041F470014FF0000030BD7FEA645C1ABF38
:1004F000194610467FEA655C1CBF0B46024650EA6F
:10050000013406BF52EA033591EA030F41F400219A
:1005100030BD00BF90F0000F04BF0021704730B520
:100520004FF4806404F132044FF000054FF00001F5
:1005300050E700BF90F0000F04BF0021704730B5B6
:100540004FF4806404F1320410F0004548BF40428B
:100550004FF000013EE700BF42004FEAE2014FEAE0
:1005600031014FEA02701FBF12F07F4393F07F4FBB
:1005700081F06051704732F07F4208BF704793F0BE
:100580007F4F04BF41F40021704730B54FF46074D1
:1005900001F0004521F000411CE700BF50EA0102D4
:1005A00008BF704730B54FF000050AE050EA01027D
:1005B00008BF704730B511F0004502D5404261EBED
:1005C00041014FF4806404F132045FEA915C3FF42E
:1005D000D8AE4FF003025FEADC0C18BF03325FEACB
:1005E000DC0C18BF033202EBDC02C2F1200300FA7C
:1005F00003FC20FA02F001FA03FE40EA0E0021FAA1
:1006000002F11444BDE600BF70B54FF0FF0C4CF48E
:10061000E06C1CEA11541DBF1CEA135594EA0C0F40
:1006200095EA0C0F00F0DEF82C4481EA030621EA7B
:100630004C5123EA4C5350EA013518BF52EA0335B6
:1006400041F4801143F4801338D0A0FB02CE4FF068
:100650000005E1FB02E506F00042E0FB03E54FF098
:100660000006E1FB03569CF0000F18BF4EF0010E90
:10067000A4F1FF04B6F5007F64F5407404D25FEA8C
:100680004E0E6D4146EB060642EAC62141EA55513F
:100690004FEAC52040EA5E504FEACE2EB4F1FD0C81
:1006A00088BFBCF5E06F1ED8BEF1004F08BF5FEAFF
:1006B000500E50F1000041EB045170BD06F00046B1
:1006C00046EA010140EA020081EA0301B4EB5C045E
:1006D000C2BFD4EB0C0541EA045170BD41F4801156
:1006E0004FF0000E013C00F3AB8014F1360FDEBF7B
:1006F000002001F0004170BDC4F10004203C35DA57
:100700000C341BDC04F11404C4F1200500FA05F3D9
:1007100020FA04F001FA05F240EA020001F000427A
:1007200021F0004110EBD37021FA04F642EB0601F0
:100730005EEA430E08BF20EAD37070BDC4F10C041A
:10074000C4F1200500FA04F320FA05F001FA04F2DE
:1007500040EA020001F0004110EBD37041F10001CA
:100760005EEA430E08BF20EAD37070BDC4F12005D5
:1007700000FA05F24EEA020E20FA04F301FA05F23D
:1007800043EA020321FA04F001F0004121FA04F2E5
:1007900020EA020000EBD3705EEA430E08BF20EAB5
:1007A000D37070BD94F0000F0FD101F000464000EF
:1007B00041EB010111F4801F08BF013CF7D041EA71
:1007C000060195F0000F18BF704703F00046520075
:1007D00043EB030313F4801F08BF013DF7D043EA46
:1007E0000603704794EA0C0F0CEA135518BF95EAFC
:1007F0000C0F0CD050EA410618BF52EA4306D1D183
:1008000081EA030101F000414FF0000070BD50EAA1
:10081000410606BF1046194652EA430619D094EA2B
:100820000C0F02D150EA013613D195EA0C0F05D115
:1008300052EA03361CBF104619460AD181EA030169
:1008400001F0004141F0FE4141F470014FF0000021
:1008500070BD41F0FE4141F4780170BD70B54FF0BC
:10086000FF0C4CF4E06C1CEA11541DBF1CEA13553C
:1008700094EA0C0F95EA0C0F00F0A7F8A4EB05041E
:1008800081EA030E52EA03354FEA013100F0888015
:100890004FEA03334FF0805545EA131343EA1263DE
:1008A0004FEA022245EA111545EA10654FEA002693
:1008B0000EF000419D4208BF964244F1FD0404F54C
:1008C000407402D25B084FEA3202B61A65EB0305A8
:1008D0005B084FEA32024FF480104FF4002CB6EB65
:1008E000020E75EB030E22BFB61A754640EA0C00E5
:1008F0005B084FEA3202B6EB020E75EB030E22BF25
:10090000B61A754640EA5C005B084FEA3202B6EB65
:10091000020E75EB030E22BFB61A754640EA9C0024
:100920005B084FEA3202B6EB020E75EB030E22BFF4
:10093000B61A754640EADC0055EA060E18D04FEAB2
:10094000051545EA16754FEA06164FEAC30343EA52
:1009500052734FEAC2025FEA1C1CC0D111F4801F1F
:100960000BD141EA00014FF000004FF0004CB6E718
:1009700011F4801F04BF01430020B4F1FD0C88BFB7
:10098000BCF5E06F3FF6AFAEB5EB030C04BFB6EBC2
:10099000020C5FEA500C50F1000041EB045170BDB5
:1009A0000EF0004E4EEA113114EB5C04C2BFD4EBE2
:1009B0000C0541EA045170BD41F480114FF0000E66
:1009C000013C90E645EA060E8DE60CEA135594EAE2
:1009D0000C0F08BF95EA0C0F3FF43BAF94EA0C0FE5
:1009E0000AD150EA01347FF434AF95EA0C0F7FF45A
:1009F00025AF104619462CE795EA0C0F06D152EAAE
:100A000003353FF4FDAE1046194622E750EA410691
:100A100018BF52EA43067FF4C5AE50EA41047FF4A2
:100A20000DAF52EA43057FF4EBAE12E74FF0FF3C07
:100A300006E000BF4FF0010C02E000BF4FF0010CD8
:100A40004DF804CD4FEA410C7FEA6C5C4FEA430C51
:100A500018BF7FEA6C5C1BD001B050EA410C0CBFA0
:100A600052EA430C91EA030F02BF90EA020F002002
:100A7000704710F1000F91EA030F58BF994208BF69
:100A800090422CBFD8176FEAE37040F00100704726
:100A90004FEA410C7FEA6C5C02D150EA013C07D17D
:100AA0004FEA430C7FEA6C5CD6D152EA033CD3D0C8
:100AB0005DF8040B704700BF8446104662468C46C2
:100AC0001946634600E000BF01B5FFF7B7FF0028F5
:100AD00048BF10F1000F01BD4DF808EDFFF7F4FF1E
:100AE0000CBF012000205DF808FB00BF4DF808EDA9
:100AF000FFF7EAFF34BF012000205DF808FB00BFCC
:100B00004DF808EDFFF7E0FF94BF012000205DF8ED
:100B100008FB00BF4DF808EDFFF7CEFF94BF0120A2
:100B200000205DF808FB00BF4DF808EDFFF7C4FF9B
:100B300034BF012000205DF808FB00BF4FEA410CE4
:100B40007FEA6C5C02D150EA013C0AD14FEA430CC7
:100B50007FEA6C5C02D152EA033C02D14FF0000004
:100B600070474FF0010070474FEA410212F5001242
:100B700015D211D56FF47873B3EB625212D94FEAE4
:100B8000C12343F0004343EA505311F0004F23FACE
:100B900002F018BF404270474FF00000704750EA23
:100BA000013005D111F0004008BF6FF000407047E0
:100BB0004FF00000704700BF4A0011D212F500123A
:100BC00011D20DD56FF47873B3EB62520ED44FEAA5
:100BD000C12343F0004343EA505323FA02F0704725
:100BE0004FF00000704750EA013002D14FF0FF3063
:100BF00070474FF0000070474FEA4102B2F1E04306
:100C000024BFB3F5001CDCF1FE5C0DD901F0004CF3
:100C10004FEAC0024CEA5070B2F1004F40EB830043
:100C200008BF20F00100704711F0804F21D113F16F
:100C30003872BCBF01F00040704741F480114FEAA8
:100C40005252C2F11802C2F1200C10FA0CF320FA31
:100C500002F018BF40F001004FEAC1234FEAD3234E
:100C600003FA0CFC40EA0C0023FA02F34FEA4303B8
:100C7000CCE77FEA625307D150EA01331EBF4FF041
:100C8000FE4040F44000704701F0004040F0FE405C
:100C900040F40000704700BF53B94AB9002908BFAB
:100CA00000281CBF4FF0FF314FF0FF3000F0BEB9FD
:100CB000ADF1080C6DE904CE00F03CF8DDF804E07D
:100CC000DDE9022304B0704738B500220023044652
:100CD0000D46FFF70BFF28B920462946BDE83840EE
:100CE00000F00AB8204605F1004100F005F8404246
:100CF00061EB410138BD00BFD0B50C4B0022064668
:100D00000F46FFF781FCFFF757FF0446FFF702FC91
:100D1000074B0022FFF778FC02460B463046394667
:100D2000FFF7BAFAFFF748FF2146D0BD0000F03DBB
:100D30000000F0412DE9F047089D8E4604468846A4
:100D4000002B4AD18A42174662D9B2FA82F64EB1D6
:100D5000C6F1200301FA06F820FA03F3B74043EA8C
:100D60000808B4404FEA174E1FFA87FCB8FBFEF1A3
:100D7000230C0EFB118843EA084301FB0CF29A4254
:100D800009D9FB1801F1FF3080F0EA809A4240F265
:100D9000E78002393B449A1AA3B2B2FBFEF00EFB85
:100DA000102243EA024300FB0CFC9C4509D9FB18C6
:100DB00000F1FF3280F0D6809C4540F2D3803B4466
:100DC000023840EA0140A3EB0C0300211DB1F340BF
:100DD0000022C5E90032BDE8F0878B4205D90DB18C
:100DE000C5E9000100210846F5E7B3FA83F10029BF
:100DF00046D1734502D3824200F20581841A6EEB1C
:100E0000030201209046002DE5D0C5E90048E2E745
:100E1000002A00F09080B2FA82F6002E40F0A48002
:100E20008A1A030C4FEA174E80B2BCB20121B2FB02
:100E3000FEFC0EFB1C2243EA024304FB0CF29A4226
:100E400007D9FB180CF1FF3802D29A4200F2E08079
:100E5000C4469B1AB3FBFEF20EFB123340EA034377
:100E600002FB04F49C4207D9FB1802F1FF3002D2C6
:100E70009C4200F2CA8002461B1B42EA0C40A5E7D6
:100E8000C1F120068B4022FA06F71F430EFA01F447
:100E900020FA06F32EFA06FE4FEA1749234300FA1A
:100EA00001F81FFA87FCBEFBF9F01C0C09FB10EEE1
:100EB00044EA0E4400FB0CFEA64502FA01F209D9F1
:100EC0003C1900F1FF3A80F09C80A64540F29980E1
:100ED00002383C44A4EB0E041FFA83FEB4FBF9F382
:100EE00009FB13444EEA044403FB0CFCA44508D957
:100EF0003C1903F1FF3E80F08280A4457FD9023B7C
:100F00003C4443EA0040A4EB0C04A0FB02EC644523
:100F10007346E14662D35FD05DB1B8EB030264EB88
:100F2000090404FA06F622FA01F31E43CC40C5E98F
:100F3000006400214FE7B1FBF2FC010C41EA0E41D5
:100F400080B240EA01423B4638463C46B846BE467F
:100F50002026B1FBF7F1A2EB080241EA0C4166E75B
:100F6000014618E710462CE7C6F120022EFA02F3DC
:100F7000B740B14020FA02F24FEA174E0A43B3FBE2
:100F8000FEF8BCB20EFB1833110C41EA034108FB1A
:100F900004F9B04089454FEA104380B23ED9791830
:100FA00008F1FF3C01D289451FD8A1EB0901B1FB33
:100FB000FEF909FB04F80EFB191192B242EA014254
:100FC000424529D2BA1809F1FF31C4D24245C2D2F2
:100FD000A9F102013A44BEE7F0459DD2BEEB0203FF
:100FE0006CEB070C0138E14696E7A7EB0909494489
:100FF000A8F1020CB1FBFEF909FB04F8DBE773462C
:101000007FE7504666E70846FDE63B44023A33E791
:10101000ACF1020C3B441CE749469CE7A1EB0901FB
:10102000C446B1FBFEF909FB04F8C4E7704700BFF2
:1010300080B586B004AF03460A46FB711346BB7108
:10104000FB799AB23223029301230193BB1D0093D3
:101050000123EC21034802F05BFD00BF0837BD46C9
:1010600080BD00BF4803002080B500AF0021F520FF
:10107000FFF7DEFF2721F420FFF7DAFF00BF80BD76
:1010800080B400AF00231846BD465DF8047B70476E
:1010900080B487B000AF87ED010A97ED017ADFEDEC
:1010A0001A6AC7EE267AFDEEE77A17EE903A7B6170
:1010B0007B69642202FB03F307EE903AF8EEE77ACD
:1010C00097ED017A77EE677AC7ED047A97ED047AA7
:1010D000DFED0E6AC7EE267AC7ED037A7B6907EE6D
:1010E000903AF8EEE77A97ED037A77EE277AC7ED34
:1010F000027ABB6807EE903AB0EE670A1C37BD462D
:101100005DF8047B704700BF0000C84200007042D9
:1011100080B586B000AF786000237B6100233B611F
:101120007B697A6813441B78242B03D17B690133D4
:101130007B610CE0002347E07B697A6813441B78ED
:101140001A463B6953403B617B6901337B617B6994
:101150007A6813441B78002B08D07B697A681344A3
:101160001B782A2B02D07B694A2BE5DD7B694A2B51
:1011700001DD002328E07B697A6813441B782A2B61
:1011800019D17B6901337A6813441B783B737B69FF
:1011900002337A6813441B787B730023BB7307F117
:1011A00008033A690A49184607F0A8FD3A7A3B7BDA
:1011B0009A4208D101E0002306E07A7A7B7B9A42CA
:1011C00001D1012300E0002318461837BD4680BD39
:1011D000F8CD000880B58EB008AF786000237B6141
:1011E00006228349786807F024FE0346002B59D174
:1011F000804B0793804B0693804B0593804B049361
:10120000804B0393804B0293804B0193804B009360
:10121000804B814A8149786807F092FD7D4BD3ED80
:10122000007AB0EE670AFFF733FFF0EE407A7C4BAE
:10123000C3ED007A754BD3ED007AB0EE670AFFF785
:1012400027FFF0EE407A774BC3ED007A6D4B1B68B9
:10125000002B20DD6B4B1B68022B0ED0022B10DC09
:10126000002B02D0012B04D00BE06F4B00221A6040
:101270000BE06D4B03221A6007E06B4B04221A60EF
:1012800003E0694B03221A6000BF684B01221A6019
:1012900001237B617DE0644B00221A60634B0022D6
:1012A0001A6076E006226249786807F0C2FD0346BC
:1012B000002B24D1584B0293534B0193534B009373
:1012C000534B544A5B49786807F03AFD514BD3EDD4
:1012D000007AB0EE670AFFF7DBFEF0EE407A504B83
:1012E000C3ED007A494BD3ED007AB0EE670AFFF701
:1012F000CFFEF0EE407A4B4BC3ED007A49E0062278
:101300004D49786807F095FD0346002B41D14B4BC2
:1013100005934B4B04933C4B03933C4B02933C4B48
:1013200001933C4B0093474B3B4A4749786807F091
:1013300007FD384BD3ED007AB0EE670AFFF7A8FE41
:10134000F0EE407A364BC3ED007A304BD3ED007AA5
:10135000B0EE670AFFF79CFEF0EE407A314BC3ED2A
:10136000007A384B1B78412B0CBF01230023DBB2E2
:101370007B612E4B1B687A699A420AD02B4A7B69A3
:1013800013607B69002B01D0032300E00023264A71
:101390001360264B1B68002B25D00622264978684F
:1013A00007F047FD0346002B1DD1194B1B78532B2B
:1013B00005D11B4BD3ED007AF1EE677A02E0184BB2
:1013C000D3ED007AC7ED047A0F4B1B78572B05D16C
:1013D000144BD3ED007AF1EE677A02E0114BD3EDB6
:1013E000007AC7ED037A00BF1837BD4680BD00BF45
:1013F00000CE0008FC020020E8020020F8020020D5
:10140000E4020020EC020020D2020020C4020020EE
:10141000D1020020C8020020CC02002008CE000823
:10142000D8020020D4020020F4020020F0020020A4
:1014300030CE000838CE000850CE0008E002002070
:10144000DC020020D002002058CE000880B582B017
:1014500000AF7860391D4FF6FF730122034804F096
:10146000C3FC7B6818460837BD4680BD4C0500208C
:1014700080B483B000AF0346FB80FB88012B0BD107
:10148000084B1B680133074A1360064B1B68032B8C
:1014900002D1044B00221A6000BF0C37BD465DF834
:1014A000047B70470806002090B585B000AF7860D7
:1014B0007B681B68684A934240F0C9807B681B7F49
:1014C000012B40F0C4800021786803F08FFFB860E2
:1014D000624B1B68BA689A4207D9BB689AB25F4BE5
:1014E0001B689BB2D31AFB8108E0BB689AB25B4BC6
:1014F0001B689BB2D31A9BB2013BFB81FB8940F670
:10150000B83293420CD9564A564B14460FCB84E856
:101510000F00554B01221A70544B01221A7093E0B0
:10152000524B1B78DBB2013B092B00F2858001A2F4
:1015300052F823F05D15000873150008891500089E
:101540009F150008B5150008CB150008E115000827
:10155000F71500080D16000823160008414AFB89FC
:101560001380424B1B78DBB20133DAB23F4B1A7067
:101570006AE03C4AFB8953803C4B1B78DBB2013369
:10158000DAB23A4B1A705FE0364AFB899380374BE8
:101590001B78DBB20133DAB2344B1A7054E0314AB3
:1015A000FB89D380314B1B78DBB20133DAB22F4B8E
:1015B0001A7049E02B4AFB8913812C4B1B78DBB254
:1015C0000133DAB2294B1A703EE0264AFB89538177
:1015D000264B1B78DBB20133DAB2244B1A7033E0AE
:1015E000204AFB899381214B1B78DBB20133DAB2AD
:1015F0001E4B1A7028E01B4AFB89D3811B4B1B78BA
:10160000DBB20133DAB2194B1A701DE0154AFB89BF
:101610001382164B1B78DBB20133DAB2134B1A700C
:1016200012E0104AFB895382104B1B78DBB2013366
:10163000DAB20E4B1A7007E00C4B1B78DBB20133A9
:10164000DAB20A4B1A7000BF044ABB68136000BFCD
:101650001437BD4690BD00BF0008004004060020BE
:10166000F0050020E005002000060020000000201A
:1016700080B582B000AF78607B681B68184A9342DF
:101680002AD1184B1B780A2B10D0174B1B785BB252
:10169000002B0BDB144B1B785A1CD1B2124A117071
:1016A0001A46104B1978114B995410E00F48FFF768
:1016B0002FFD0346002B02D00C48FFF78BFD0A4B91
:1016C00000221A7080220021084807F0AAFB01229C
:1016D0000449074804F013FC00BF0837BD4680BD2D
:1016E00000100140C1020020C00200204002002082
:1016F0000405002080B582B000AF01F071F900F060
:101700005DF800F0BDFB00F03DFB00F03FF900F09C
:10171000D3F900F069FA00F089FB00F009F900F054
:101720005BFB00F0B3F800F009FB00F0CDFA0023FA
:101730007B601F4B5B6C1E4A43F4804353641C4B1D
:101740005B6C03F480437B607B6800224FF40051A4
:10175000184802F04DF84FF4FA6001F083F9FFF7F2
:1017600083FC4FF4FA6001F07DF900F051FC40F683
:10177000B83001F077F901224FF400510D4802F022
:1017800037F8282001F06EF94FF480410A4802F042
:1017900048F84FF47A7001F065F94FF4805106482B
:1017A00002F03FF84FF47A7001F05CF900BFEBE70C
:1017B00000380240000802400004024080B594B0A6
:1017C00000AF07F1200330220021184607F029FB63
:1017D00007F10C0300221A605A609A60DA601A61FD
:1017E0000023BB60274B1B6C264A43F080531364D5
:1017F000244B1B6C03F08053BB60BB6800237B60F1
:10180000214B1B68204A43F4404313601E4B1B6866
:1018100003F440437B607B6802233B620123FB624D
:1018200010233B630223BB630023FB6308233B6459
:1018300054237B640223BB640423FB6407F120036D
:10184000184602F0CFFC0346002B01D000F0B8FB95
:101850000F23FB6002233B6100237B614FF4805325
:10186000BB610023FB6107F10C030221184602F063
:1018700031FF0346002B01D000F0A2FB00BF503720
:10188000BD4680BD003802400070004080B584B085
:1018900000AF3B4600221A605A609A60DA60214B22
:1018A000214A1A601F4B4FF480325A601D4B0022B0
:1018B0009A601C4B00221A611A4B00221A76194BAF
:1018C000002283F82020174B0022DA62154B174ABA
:1018D0009A62144B0022DA60124B0122DA61114B3A
:1018E000002283F830200F4B01225A610D4801F08D
:1018F000DDF80346002B01D000F062FB04233B60BF
:1019000001237B600023BB603B461946054801F07C
:101910003FFA0346002B01D000F052FB00BF103706
:10192000BD4680BD00030020002001400100000FE3
:1019300080B500AF124B134A1A60114B124A5A601D
:101940000F4B00229A600E4B0022DA600C4B4FF4D2
:1019500080421A610A4B00225A61094B00229A61A7
:10196000074B0022DA61064B00221A62044801F09C
:101970008BFF0346002B01D000F022FB00BF80BD8F
:101980004803002000540040A086010080B58EB0BE
:1019900000AF07F1280300221A605A609A60DA60EB
:1019A00007F1200300221A605A603B1D00221A60D2
:1019B0005A609A60DA601A615A619A613D4B4FF041
:1019C00080421A603B4B53225A603A4B00229A6085
:1019D000384B44F61F62DA60364B00221A61354BF1
:1019E00000229A61334803F087F80346002B01D0A8
:1019F00000F0E6FA4FF48053BB6207F12803194662
:101A00002C4803F02BFC0346002B01D000F0D8FA41
:101A1000284803F023F90346002B01D000F0D0FA48
:101A200000233B6200237B6207F120031946214813
:101A300004F008F90346002B01D000F0C1FA60233E
:101A40007B600023BB600023FB6000237B613B1DA8
:101A500000221946174803F03FFB0346002B01D034
:101A600000F0AEFA3B1D04221946124803F034FB85
:101A70000346002B01D000F0A3FA3B1D08221946B3
:101A80000C4803F029FB0346002B01D000F098FA24
:101A90003B1D0C221946074803F01EFB0346002B92
:101AA00001D000F08DFA034800F07AFC00BF38370F
:101AB000BD4680BD9C03002080B58EB000AF07F10D
:101AC000280300221A605A609A60DA6007F1200346
:101AD00000221A605A603B1D00221A605A609A6008
:101AE000DA601A615A619A613D4B3E4A1A603C4B7A
:101AF00053225A603A4B00229A60394B44F61F62D7
:101B0000DA60374B00221A61354B00229A61344863
:101B100002F0F2FF0346002B01D000F051FA4FF41F
:101B20008053BB6207F1280319462D4803F096FB4A
:101B30000346002B01D000F043FA294803F08EF849
:101B40000346002B01D000F03BFA00233B62002348
:101B50007B6207F120031946214804F073F803461D
:101B6000002B01D000F02CFA60237B600023BB60C7
:101B70000023FB6000237B613B1D002219461848AF
:101B800003F0AAFA0346002B01D000F019FA3B1D1E
:101B900004221946124803F09FFA0346002B01D095
:101BA00000F00EFA3B1D082219460D4803F094FA86
:101BB0000346002B01D000F003FA3B1D0C2219460E
:101BC000074803F089FA0346002B01D000F0F8F92A
:101BD000034800F0E5FB00BF3837BD4680BD00BFBD
:101BE000E40300200004004080B58AB000AF07F194
:101BF000180300221A605A609A60DA6007F1100335
:101C000000221A605A603B4600221A605A609A60AD
:101C1000DA602B4B2B4A1A60294B53225A60284B0F
:101C200000229A60264B4FF6FF72DA60244B0022A6
:101C30001A61234B00229A61214802F05DFF03469E
:101C4000002B01D000F0BCF94FF48053BB6107F1C9
:101C5000180319461A4803F001FB0346002B01D074
:101C600000F0AEF9164803F052F80346002B01D0FD
:101C700000F0A6F900233B6100237B6107F110030C
:101C800019460F4803F0DEFF0346002B01D000F099
:101C900097F900233B6001237B600023BB600A238C
:101CA000FB603B4600221946054803F079F90346DC
:101CB000002B01D000F084F900BF2837BD4680BD5D
:101CC0002C0400200008004080B584B000AF3B46E3
:101CD00000221A605A609A60DA60164B164A1A603F
:101CE000144B53225A60134B00229A60114B4FF64B
:101CF000FF72DA600F4B00221A610E4B00229A61CC
:101D00000C4802F0F9FE0346002B01D000F058F910
:101D10004FF480533B603B461946064803F09EFA59
:101D20000346002B01D000F04BF900BF1037BD4631
:101D300080BD00BF740400200040014080B500AFAA
:101D40000E4B0F4A1A600D4B53225A600B4B002268
:101D50009A600A4B40F6C312DA60084B00221A61FF
:101D6000064B00229A61054802F0C6FE0346002B8E
:101D700001D000F025F900BF80BD00BFBC040020E9
:101D80000044014080B500AF114B124A1A60104B5D
:101D90004FF416525A600E4B00229A600C4B0022F0
:101DA000DA600B4B00221A61094B0C225A61084B76
:101DB00000229A61064B0022DA61054803F0C4FF55
:101DC0000346002B01D000F0FBF800BF80BD00BF30
:101DD000040500200010014080B500AF114B124AED
:101DE0001A60104B4FF416525A600E4B00229A6044
:101DF0000C4B0022DA600B4B00221A61094B0C22BB
:101E00005A61084B00229A61064B0022DA610548AC
:101E100003F09AFF0346002B01D000F0D1F800BF79
:101E200080BD00BF4C0500200044004080B500AFDD
:101E3000114B124A1A60104B4FF4E1325A600E4BAC
:101E400000229A600C4B0022DA600B4B00221A61D0
:101E5000094B0C225A61084B00229A61064B002262
:101E6000DA61054803F070FF0346002B01D000F053
:101E7000A7F800BF80BD00BF9405002000140140FA
:101E800080B588B000AF07F10C0300221A605A60D9
:101E90009A60DA601A610023BB60354B1B6B344AD1
:101EA00043F004031363324B1B6B03F00403BB606A
:101EB000BB6800237B602E4B1B6B2D4A43F0010354
:101EC00013632B4B1B6B03F001037B607B680023C8
:101ED0003B60274B1B6B264A43F002031363244BE2
:101EE0001B6B03F002033B603B6800224FF4005180
:101EF000204801F07DFC00224FF4E0411E4801F033
:101F000077FC4FF40053FB6001233B6100237B61AE
:101F10000023BB6107F10C031946164801F0E4FAEF
:101F20000123FB604FF404133B6101237B6107F144
:101F30000C031946114801F0D7FA4FF4E043FB6057
:101F400001233B6100237B610023BB6107F10C038C
:101F50001946094801F0C8FA00220521062001F0BF
:101F600007FA062001F020FA00BF2037BD4680BDE9
:101F70000038024000080240000402400000024015
:101F800080B582B000AF78607B681B68094A9342D5
:101F900001D100F047FD7B681B68074A934204D1DA
:101FA000064B1B68184604F04BFF00BF0837BD46C0
:101FB00080BD00BF0048014000440140DC05002016
:101FC00080B400AF72B600BF00BFFDE780B483B03D
:101FD00000AF78607B684FF00002DA607B684FF0FA
:101FE00000021A617B684FF07E525A617B684FF0A5
:101FF00000029A617B684FF00002DA617B684FF063
:102000007E521A6200BF0C37BD465DF8047B7047F4
:1020100080B586B004AF0023FB7132230293012305
:102020000193FB1D009301236B22D021224801F074
:102030006FFD0023FB713223029301230193FB1DEB
:10204000009301231B22D0211B4801F061FD0023D6
:10205000FB713223029301230193FB1D00930123A3
:102060001C22D021144801F053FD0523FB71642389
:10207000029301230193FB1D009301231A22D02117
:102080000D4801F045FD0323FB71642302930123F6
:102090000193FB1D009301231922D021064801F072
:1020A00037FD0648FFF792FF0548FFF78FFF00BF97
:1020B0000837BD4680BD00BF480300200400002053
:1020C0002800002080B582B000AF00237B60124B57
:1020D0005B6C114A43F4804353640F4B5B6C03F415
:1020E00080437B607B6800233B600B4B1B6C0A4A80
:1020F00043F080531364084B1B6C03F080533B6028
:102100003B6800220F216FF0010001F031F900BFA0
:102110000837BD4680BD00BF0038024080B58AB098
:1021200000AF786007F1140300221A605A609A60C9
:10213000DA601A617B681B681B4A93422FD1002327
:102140003B611A4B5B6C194A43F480735364174B21
:102150005B6C03F480733B613B690023FB60134BB2
:102160001B6B124A43F001031363104B1B6B03F00C
:102170000103FB60FB6810237B610323BB61002329
:10218000FB6107F114031946094801F0ADF900227B
:102190000521122001F0ECF8122001F005F900BF32
:1021A0002837BD4680BD00BF0020014000380240F6
:1021B0000000024080B58AB000AF786007F11403D8
:1021C00000221A605A609A60DA601A617B681B68A4
:1021D000194A93422CD100233B61184B1B6B174AC1
:1021E00043F002031363154B1B6B03F002033B61C7
:1021F0003B694FF440737B611223BB610123FB6198
:1022000003233B6204237B6207F1140319460C4845
:1022100001F06AF90023FB60084B1B6C074A43F48A
:1022200000131364054B1B6C03F40013FB60FB6885
:1022300000BF2837BD4680BD005400400038024032
:102240000004024080B58EB000AF786007F124032F
:1022500000221A605A609A60DA601A617B681B6813
:10226000B3F1804F0ED100233B62474B1B6C464AB3
:1022700043F001031364444B1B6C03F001033B6206
:102280003B6A7CE07B681B68404A93420ED1002386
:10229000FB613D4B1B6C3C4A43F0020313643A4B19
:1022A0001B6C03F00203FB61FB6968E07B681B6841
:1022B000374A934234D10023BB61334B1B6C324A03
:1022C00043F004031364304B1B6C03F00403BB6145
:1022D000BB6900237B612C4B1B6B2B4A43F0020331
:1022E0001363294B1B6B03F002037B617B69402363
:1022F0007B620223BB620223FB6203233B63022354
:102300007B6307F124031946224801F0EDF800220F
:1023100005211E2001F02CF81E2001F045F82EE0CA
:102320007B681B681C4A93420ED100233B61164B0D
:102330005B6C154A43F480335364134B5B6C03F4BA
:1023400080333B613B691AE07B681B68134A934208
:1023500015D10023FB600C4B5B6C0B4A43F400333C
:102360005364094B5B6C03F40033FB60FB68002291
:102370000521192000F0FCFF192001F015F800BF1D
:102380003837BD4680BD00BF003802400004004021
:1023900000080040000402400040014000440140A9
:1023A00080B58CB000AF786007F11C0300221A6082
:1023B0005A609A60DA601A617B681B68B3F1804FDB
:1023C0003ED10023BB61414B1B6B404A43F00103EC
:1023D00013633E4B1B6B03F00103BB61BB6900231E
:1023E0007B613A4B1B6B394A43F002031363374B53
:1023F0001B6B03F002037B617B6948F20203FB6104
:1024000002233B6200237B620023BB620123FB6249
:1024100007F11C0319462E4801F066F84FF480635B
:10242000FB6102233B6200237B620023BB6201232A
:10243000FB6207F11C031946264801F055F840E0FD
:102440007B681B68244A93423BD100233B611F4BAE
:102450001B6B1E4A43F0010313631C4B1B6B03F001
:1024600001033B613B690023FB60184B1B6B174A60
:1024700043F002031363154B1B6B03F00203FB6075
:10248000FB68C023FB6102233B6200237B620023C5
:10249000BB620223FB6207F11C0319460C4801F0E2
:1024A00023F80323FB6102233B6200237B620023AA
:1024B000BB620223FB6207F11C031946054801F0C9
:1024C00013F800BF3037BD4680BD00BF0038024062
:1024D00000000240000402400004004080B58EB0BD
:1024E00000AF786007F1240300221A605A609A60F6
:1024F000DA601A617B681B68504A934235D1002329
:102500003B624F4B5B6C4E4A43F0100353644C4BA1
:102510005B6C03F010033B623B6A0023FB61484B9A
:102520001B6B474A43F001031363454B1B6B03F0DE
:102530000103FB61FB694FF4C0637B620223BB6252
:102540000023FB6203233B6307237B6307F1240320
:1025500019463C4800F0C8FF00220521252000F064
:1025600007FF252000F020FF63E07B681B68364AE8
:1025700093422CD10023BB61314B1B6C304A43F496
:10258000003313642E4B1B6C03F40033BB61BB6937
:1025900000237B612A4B1B6B294A43F00103136321
:1025A000274B1B6B03F001037B617B690C237B6270
:1025B0000223BB620023FB6203233B6307237B638D
:1025C00007F1240319461F4800F08EFF31E07B68B5
:1025D0001B681E4A93422CD100233B61184B5B6C55
:1025E000174A43F020035364154B5B6C03F0200340
:1025F0003B613B690023FB60114B1B6B104A43F0AE
:10260000010313630E4B1B6B03F00103FB60FB68BC
:102610004FF4C0537B620223BB620023FB6203239F
:102620003B6308237B6307F124031946054800F048
:102630005BFF00BF3837BD4680BD00BF00100140C2
:1026400000380240000002400044004000140140F5
:1026500080B58CB000AF78600023BB6200237B6242
:102660000023BB602E4B5B6C2D4A43F480235364E4
:102670002B4B5B6C03F48023BB60BB6807F10C023F
:1026800007F110031146184602F004FA02F0EEF9C1
:10269000B862BB6A234AA2FB03239B0C013B7B620B
:1026A000214B224A1A60204B40F2E732DA601E4A80
:1026B0007B6A53601C4B00221A611B4B00229A60FC
:1026C000194B00229A61184802F016FA034687F85F
:1026D0002F3097F82F30002B1BD1134802F05CFAF3
:1026E000034687F82F3097F82F30002B11D11A208E
:1026F00000F05AFE7B680F2B08D8002279681A2058
:1027000000F036FE0A4A7B68136002E0012387F876
:102710002F3097F82F3018463037BD4680BD00BFA8
:102720000038024083DE1B430C06002000480140B5
:102730005000002080B400AF00BFFDE780B400AFC0
:1027400000BFFDE780B400AF00BFFDE780B400AF7D
:1027500000BFFDE780B400AF00BFFDE780B400AF6D
:1027600000BFBD465DF8047B704780B500AF012017
:1027700001F072F800BF80BD80B500AF024800F0E4
:10278000D8F900BF80BD00BF0003002080B500AFB6
:10279000024802F015FB00BF80BD00BFBC04002052
:1027A00080B500AF024802F00BFB00BF80BD00BF48
:1027B0000C06002080B500AF024802F001FB00BF0C
:1027C00080BD00BF2C04002080B500AF024803F09C
:1027D000BBFB00BF80BD00BF0405002080B400AF7C
:1027E00001231846BD465DF8047B704780B582B072
:1027F00000AF7860396006F079FB034616221A6054
:102800004FF0FF3318460837BD4680BD80B582B013
:1028100000AF78604FF0FF317868FFF7E7FF00BF47
:10282000FDE780B586B000AFF860B9607A6000233C
:102830007B610AE0AFF300800146BB685A1CBA60B6
:10284000CAB21A707B6901337B617A697B689A42EC
:10285000F0DB7B6818461837BD4680BD80B586B072
:1028600000AFF860B9607A6000237B6109E0BB6863
:102870005A1CBA601B781846FEF7E8FD7B690133E5
:102880007B617A697B689A42F1DB7B68184618376E
:10289000BD4680BD80B483B000AF78604FF0FF3399
:1028A00018460C37BD465DF8047B704780B483B092
:1028B00000AF786039603B684FF400525A600023E3
:1028C00018460C37BD465DF8047B704780B483B072
:1028D00000AF7860012318460C37BD465DF8047BD5
:1028E000704780B485B000AFF860B9607A600023AB
:1028F00018461437BD465DF8047B704780B586B036
:1029000000AF7860144A154BD31A7B617B693B6139
:10291000134B1B68002B02D1114B124A1A60104B4B
:102920001A687B6813443A699A4207D206F0DEFAC5
:1029300003460C221A604FF0FF3309E0084B1B6876
:10294000FB60074B1A687B681344054A1360FB68F9
:1029500018461837BD4680BD000002200004000064
:1029600054060020700C002080B400AF064BD3F852
:102970008830054A43F47003C2F8883000BFBD4672
:102980005DF8047B704700BF00ED00E0DFF834D055
:10299000FFF7EAFF0C480D490D4A002302E0D45826
:1029A000C4500433C4188C42F9D30A4A0A4C002399
:1029B00001E013600432A242FBD306F09DFAFEF759
:1029C00099FE704700000220000000202402002031
:1029D000F4D2000824020020700C0020FEE7000062
:1029E00080B500AF0E4B1B680D4A43F400731360B3
:1029F0000B4B1B680A4A43F480631360084B1B6847
:102A0000074A43F480731360032000F0A6FC0F20F4
:102A1000FFF71EFEFFF756FB0023184680BD00BFE0
:102A2000003C024080B400AF064B1B781A46064BB0
:102A30001B681344044A136000BFBD465DF8047B65
:102A4000704700BF540000205806002080B400AF3B
:102A5000034B1B681846BD465DF8047B704700BFFA
:102A60005806002080B584B000AF7860FFF7EEFF15
:102A7000B8607B68FB60FB68B3F1FF3F05D00A4B91
:102A80001B781A46FB681344FB6000BFFFF7DEFFAC
:102A90000246BB68D31AFA689A42F7D800BF00BF53
:102AA0001037BD4680BD00BF5400002080B584B003
:102AB00000AF78600023FB737B68002B01D10123FA
:102AC00033E07B681B6C002B09D17868FFF726FB8D
:102AD0007B6800225A647B68002283F83C207B6874
:102AE0001B6C03F01003002B18D17B681B6C23F4C4
:102AF000885323F0020343F002027B681A6478686B
:102B000000F078FA7B6800225A647B681B6C23F023
:102B1000030343F001027B681A6401E00123FB73A5
:102B20007B68002283F83C20FB7B18461037BD46AB
:102B300080BD80B586B000AF786000237B61002344
:102B40003B617B681B681B68FB607B681B685B687C
:102B5000BB60FB6803F002037B61BB6803F02003EA
:102B60003B617B69002B49D03B69002B46D07B68D9
:102B70001B6C03F01003002B05D17B681B6C43F426
:102B800000727B681A647B681B689B6803F0405383
:102B9000002B2BD17B681B7E002B27D17B681B6809
:102BA000DB6A03F47003002B06D07B681B689B680C
:102BB00003F48063002B19D17B681B685A687B681B
:102BC0001B6822F020025A607B681B6C23F4807221
:102BD0007B681A647B681B6C03F48053002B05D15F
:102BE0007B681B6C43F001027B681A64786800F014
:102BF000B0F87B681B686FF012021A60FB6803F084
:102C000004037B61BB6803F080033B617B69002B9D
:102C100057D03B69002B54D07B681B6C03F010032A
:102C2000002B05D17B681B6C43F400527B681A644F
:102C30007B681B689B6803F44013002B39D17B68C9
:102C40001B689B6B03F44013002B06D07B681B684A
:102C50009B6803F48063002B2BD17B681B685B6847
:102C600003F48063002B24D17B681B689B6803F00E
:102C70004053002B1DD17B681B7E002B19D17B6834
:102C80001B685A687B681B6822F080025A607B6868
:102C90001B6C23F480527B681A647B681B6C03F402
:102CA0008073002B05D17B681B6C43F001027B68AD
:102CB0001A64786800F09AFA7B681B686FF00C025F
:102CC0001A60FB6803F001037B61BB6803F04003FB
:102CD0003B617B69002B17D03B69002B14D07B68CC
:102CE0001B681B6803F00103012B0DD17B681B6C73
:102CF00043F480327B681A64786800F034F87B68AB
:102D00001B686FF001021A60FB6803F020037B610F
:102D1000BB6803F080633B617B69002B15D03B6986
:102D2000002B12D07B685B6C43F002027B685A6414
:102D30007B681B686FF020021A60786800F01DF84D
:102D40007B681B686FF020021A6000BF1837BD4611
:102D500080BD80B483B000AF786000BF0C37BD4643
:102D60005DF8047B704780B483B000AF786000BF2B
:102D70000C37BD465DF8047B704780B483B000AF6C
:102D8000786000BF0C37BD465DF8047B70470000DB
:102D900080B485B000AF786039600023BB607B6889
:102DA00093F83C30012B01D1022313E17B6801220F
:102DB00083F83C203B681B68092B25D97B681B687E
:102DC000D9683B681B689BB21A4613465B001344E4
:102DD0001E3B072202FA03F3DA437B681B680A40B2
:102DE000DA607B681B68D9683B689A683B681B6837
:102DF0009BB2184603465B0003441E3B9A407B6827
:102E00001B680A43DA6022E07B681B6819693B682B
:102E10001B689BB21A4613465B001344072202FA52
:102E200003F3DA437B681B680A401A617B681B68FE
:102E300019693B689A683B681B689BB21846034651
:102E40005B0003449A407B681B680A431A613B6835
:102E50005B68062B24D87B681B68596B3B685A68F3
:102E600013469B001344053B1F2202FA03F3DA4387
:102E70007B681B680A405A637B681B68596B3B6818
:102E80001B689BB218463B685A6813469B00134464
:102E9000053B00FA03F27B681B680A435A634CE067
:102EA0003B685B680C2B24D87B681B68196B3B68FC
:102EB0005A6813469B001344233B1F2202FA03F374
:102EC000DA437B681B680A401A637B681B68196BCE
:102ED0003B681B689BB218463B685A6813469B00C8
:102EE0001344233B00FA03F27B681B680A431A630E
:102EF00023E07B681B68D96A3B685A6813469B00CD
:102F00001344413B1F2202FA03F3DA437B681B6838
:102F10000A40DA627B681B68D96A3B681B689BB20F
:102F200018463B685A6813469B001344413B00FA1D
:102F300003F27B681B680A43DA62294BFB607B68FB
:102F40001B68284A93420FD13B681B68122B0BD198
:102F5000FB685B6823F40002FB685A60FB685B68EF
:102F600043F48002FB685A607B681B681D4A9342E9
:102F70002BD13B681B681C4A934203D03B681B68FB
:102F8000112B22D1FB685B6823F48002FB685A6036
:102F9000FB685B6843F40002FB685A603B681B688F
:102FA000114A934211D1114B1B68114AA2FB032312
:102FB0009A0C13469B0013445B00BB6002E0BB68A5
:102FC000013BBB60BB68002BF9D17B68002283F812
:102FD0003C20002318461437BD465DF8047B70473B
:102FE0000023014000200140120000104C0000208E
:102FF00083DE1B4380B485B000AF7860794BFB6003
:10300000FB685B6823F44032FB685A60FB685A68CF
:103010007B685B681A43FB685A607B681B685A6868
:103020007B681B6822F480725A607B681B68596851
:103030007B681B691A027B681B680A435A607B68BD
:103040001B685A687B681B6822F040725A607B6874
:103050001B6859687B689A687B681B680A435A60DA
:103060007B681B689A687B681B6822F400629A6020
:103070007B681B6899687B68DA687B681B680A4311
:103080009A607B689B6A584A934222D07B681B688F
:103090009A687B681B6822F070629A607B681B6884
:1030A00099687B689A6A7B681B680A439A607B68A8
:1030B0001B689A687B681B6822F040529A607B68A4
:1030C0001B6899687B68DA6A7B681B680A439A60A8
:1030D0000FE07B681B689A687B681B6822F070624F
:1030E0009A607B681B689A687B681B6822F0405274
:1030F0009A607B681B689A687B681B6822F00202F2
:103100009A607B681B6899687B681B7E5A007B68A5
:103110001B680A439A607B6893F82030002B1BD011
:103120007B681B685A687B681B6842F400625A60BF
:103130007B681B685A687B681B6822F460425A608F
:103140007B681B6859687B685B6A013B5A037B6834
:103150001B680A435A6007E07B681B685A687B68F3
:103160001B6822F400625A607B681B68DA6A7B681D
:103170001B6822F47002DA627B681B68D96A7B687C
:10318000DB69013B1A057B681B680A43DA627B68CE
:103190001B689A687B681B6822F400729A607B68DF
:1031A0001B6899687B6893F830305A027B681B680B
:1031B0000A439A607B681B689A687B681B6822F4E4
:1031C00080629A607B681B6899687B685B699A0279
:1031D0007B681B680A439A6000BF1437BD465DF8E0
:1031E000047B7047002301400100000F80B483B0CE
:1031F00000AF786000BF0C37BD465DF8047B7047B8
:1032000080B485B000AF78607B6803F00703FB6093
:103210000C4BDB68BB60BA684FF6FF031340BB6022
:10322000FB681A02BB68134343F0BF6343F40033E7
:10323000BB60044ABB68D36000BF1437BD465DF86D
:10324000047B704700ED00E080B400AF044BDB6806
:103250001B0A03F007031846BD465DF8047B704760
:1032600000ED00E080B483B000AF0346FB7197F936
:103270000730002B0BDBFB7903F01F02074997F99E
:1032800007305B09012000FA02F241F8232000BF59
:103290000C37BD465DF8047B704700BF00E100E0DD
:1032A00080B483B000AF03463960FB7197F90730F3
:1032B000002B0ADB3B68DAB20C4997F907301201A0
:1032C000D2B20B4483F800230AE03B68DAB2084923
:1032D000FB7903F00F03043B1201D2B20B441A76C0
:1032E00000BF0C37BD465DF8047B704700E100E08D
:1032F00000ED00E080B489B000AFF860B9607A609A
:10330000FB6803F00703FB61FB69C3F10703042BB0
:1033100028BF0423BB61FB690433062B02D9FB6978
:10332000033B00E000237B614FF0FF32BB6902FAF0
:1033300003F3DA43BB681A407B699A404FF0FF31D0
:103340007B6901FA03F3D9437B680B4013431846AA
:103350002437BD465DF8047B704780B582B000AF6E
:1033600078607868FFF74CFF00BF0837BD4680BD26
:1033700080B586B000AF0346B9607A60FB73002366
:103380007B61FFF761FF78617A68B9687869FFF758
:10339000B1FF024697F90F3011461846FFF780FF3C
:1033A00000BF1837BD4680BD80B582B000AF034670
:1033B000FB7197F907301846FFF754FF00BF083735
:1033C000BD4680BD80B584B000AF78607B689B6DE2
:1033D000FB60FFF73BFBB8607B6893F83530DBB2EE
:1033E000022B08D07B6880225A657B68002283F814
:1033F0003420012352E07B681B681A687B681B68D5
:1034000022F016021A607B681B685A697B681B6889
:1034100022F080025A617B681B6C002B03D17B6811
:103420009B6C002B07D07B681B681A687B681B6845
:1034300022F008021A607B681B681A687B681B68A8
:1034400022F001021A6013E0FFF700FB0246BB689E
:10345000D31A052B0CD97B6820225A657B6803227E
:1034600083F835207B68002283F83420032315E09D
:103470007B681B681B6803F00103002BE4D17B68A9
:10348000DB6D3F229A40FB689A607B68012283F8DB
:1034900035207B68002283F834200023184610373B
:1034A000BD4680BD80B483B000AF78607B6893F880
:1034B0003530DBB2022B04D07B6880225A650123B1
:1034C0000CE07B68052283F835207B681B681A684E
:1034D0007B681B6822F001021A60002318460C3733
:1034E000BD465DF8047B704780B489B000AF78605A
:1034F000396000237B6100233B610023BB61002313
:10350000FB6159E10122FB6902FA03F37B613B682D
:103510001B687A6913403B613A697B699A4240F0C3
:1035200048813B685B6803F00303012B05D03B68CF
:103530005B6803F00303022B30D17B689B68BB619F
:10354000FB695B00032202FA03F3DB43BA69134011
:10355000BB613B68DA68FB695B0002FA03F3BA6996
:103560001343BB617B68BA699A607B685B68BB6127
:103570000122FB6902FA03F3DB43BA691340BB6122
:103580003B685B681B0903F00102FB6902FA03F365
:10359000BA691343BB617B68BA695A603B685B6870
:1035A00003F00303032B17D07B68DB68BB61FB6967
:1035B0005B00032202FA03F3DB43BA691340BB61E9
:1035C0003B689A68FB695B0002FA03F3BA6913432C
:1035D000BB617B68BA69DA603B685B6803F0030330
:1035E000022B23D1FB69DA087B68083253F82230BA
:1035F000BB61FB6903F007039B000F2202FA03F390
:10360000DB43BA691340BB613B681A69FB6903F08D
:1036100007039B0002FA03F3BA691343BB61FB691A
:10362000DA087B680832B96943F822107B681B68A6
:10363000BB61FB695B00032202FA03F3DB43BA6957
:103640001340BB613B685B6803F00302FB695B00EE
:1036500002FA03F3BA691343BB617B68BA691A6063
:103660003B685B6803F44033002B00F0A28000232A
:10367000FB60574B5B6C564A43F480435364544B96
:103680005B6C03F48043FB60FB68524AFB699B0858
:10369000023352F82330BB61FB6903F003039B0044
:1036A0000F2202FA03F3DB43BA691340BB617B6864
:1036B000494A934219D07B68484A934213D07B68A9
:1036C000474A93420DD07B68464A934207D07B68B5
:1036D000454A934201D1042308E0072306E003236F
:1036E00004E0022302E0012300E00023FA6902F073
:1036F000030292009340BA691343BB613549FB69E9
:103700009B080233BA6941F82320384B9B68BB61A0
:103710003B69DB43BA691340BB613B685B6803F4F8
:103720008013002B03D0BA693B691343BB612F4A56
:10373000BB6993602D4BDB68BB613B69DB43BA69B6
:103740001340BB613B685B6803F40013002B03D09C
:10375000BA693B691343BB61244ABB69D360234BFD
:103760005B68BB613B69DB43BA691340BB613B6883
:103770005B6803F40033002B03D0BA693B69134341
:10378000BB611A4ABB695360184B1B68BB613B693C
:10379000DB43BA691340BB613B685B6803F4803369
:1037A000002B03D0BA693B691343BB610F4ABB6965
:1037B0001360FB690133FB61FB690F2B7FF6A2AE3F
:1037C00000BF00BF2437BD465DF8047B704700BFD3
:1037D000003802400038014000000240000402406E
:1037E00000080240000C024000100240003C014072
:1037F00080B483B000AF78600B467B8013467B704B
:103800007B78002B03D07A887B689A6103E07B8801
:103810001A047B689A6100BF0C37BD465DF8047BD3
:10382000704780B485B000AF78600B467B807B68C2
:103830005B69FB607A88FB6813401A04FB68D94314
:103840007B880B401A437B689A6100BF1437BD46E2
:103850005DF8047B7047000080B582B000AF03467E
:10386000FB80084B5A69FB881340002B06D0054AA1
:10387000FB885361FB881846FDF7FAFD00BF083747
:10388000BD4680BD003C014080B584B000AF78608B
:103890007B68002B01D101232BE17B6893F83D303D
:1038A000DBB2002B06D17B68002283F83C207868CD
:1038B000FEF780FC7B68242283F83D207B681B6830
:1038C0001A687B681B6822F001021A607B681B681B
:1038D0001A687B681B6842F400421A607B681B68A8
:1038E0001A687B681B6822F400421A6001F0AAF88B
:1038F000F8607B685B68814A934207D8FB68804A1E
:10390000934294BF01230023DBB206E0FB687D4AAB
:10391000934294BF01230023DBB2002B01D001238B
:10392000E7E0FB68784AA2FB03239B0CBB607B6843
:103930001B685B6823F03F017B681B68BA680A4319
:103940005A607B681B681B6A23F03F017B685B68D9
:103950006A4A934202D8BB68013309E0BB684FF45E
:10396000967202FB03F3694AA2FB03239B0901330E
:103970007A6812680B4313627B681B68DB6923F467
:103980004F4222F0FF027B685B685C498B4219D88A
:10399000FB68591E7B685B685B00B1FBF3F3591C45
:1039A00040F6FC730B40002B0AD0FB68591E7B6865
:1039B0005B685B00B1FBF3F30133C3F30B0351E02E
:1039C00004234FE07B689B68002B11D1FB68581ED5
:1039D0007B6859680B465B000B44B0FBF3F3013383
:1039E000C3F30B03002B0CBF01230023DBB212E057
:1039F000FB68581E7B6859680B469B000B44990076
:103A00000B44B0FBF3F30133C3F30B03002B0CBFE8
:103A100001230023DBB2002B01D0012322E07B68CD
:103A20009B68002B0ED1FB68581E7B6859680B46BB
:103A30005B000B44B0FBF3F30133C3F30B0343F41C
:103A400000430FE0FB68581E7B6859680B469B00DB
:103A50000B4499000B44B0FBF3F30133C3F30B03A6
:103A600043F44043796809681343CB617B681B6862
:103A70001B6823F0C0017B68DA697B681B6A1A4304
:103A80007B681B680A431A607B681B689B6823F489
:103A9000034323F0FF037A6811697A68D2681143FF
:103AA0007A6812680B4393607B681B68DB6823F0BD
:103AB000FF017B685A697B689B691A437B681B68B6
:103AC0000A43DA607B681B681A687B681B6842F0EF
:103AD00001021A607B6800221A647B68202283F846
:103AE0003D207B6800221A637B68002283F83E2019
:103AF000002318461037BD4680BD00BFA0860100D8
:103B00007F841E00FF083D0083DE1B43D34D6210FF
:103B100080B588B002AFF860084611461A460346E1
:103B20007B810B463B811346FB80FEF78FFF78615C
:103B3000FB6893F83D30DBB2202B40F0D9807B69E5
:103B40000093192301226D49F86800F071F90346CA
:103B5000002B01D00223CCE0FB6893F83C30012B12
:103B600001D10223C5E0FB68012283F83C20FB68F9
:103B70001B681B6803F00103012B07D0FB681B685F
:103B80001A68FB681B6842F001021A60FB681B6838
:103B90001A68FB681B6822F400621A60FB68212225
:103BA00083F83D20FB68402283F83E20FB6800221A
:103BB0001A64FB683A6A5A62FB68BA8C5A85FB68D9
:103BC0005B8D9AB2FB681A85FB684D4ADA62F88809
:103BD0003A8979897B690193BB6A00930346F86847
:103BE00000F090F80346002B52D0012381E07A695F
:103BF000B96AF86800F036FA0346002B0DD0FB686E
:103C00001B6C042B07D1FB681B681A68FB681B68D8
:103C100042F400721A6001236BE0FB685B6A1A7859
:103C2000FB681B681A61FB685B6A5A1CFB685A6276
:103C3000FB681B8D013B9AB2FB681A85FB685B8DA4
:103C40009BB2013B9AB2FB685A85FB681B685B69B3
:103C500003F00403042B1BD1FB681B8D002B17D032
:103C6000FB685B6A1A78FB681B681A61FB685B6A11
:103C70005A1CFB685A62FB681B8D013B9AB2FB68B9
:103C80001A85FB685B8D9BB2013B9AB2FB685A8533
:103C9000FB681B8D002BAAD17A69B96AF86800F01D
:103CA00029FA0346002B0DD0FB681B6C042B07D1AF
:103CB000FB681B681A68FB681B6842F400721A6094
:103CC000012316E0FB681B681A68FB681B6842F456
:103CD00000721A60FB68202283F83D20FB680022F6
:103CE00083F83E20FB68002283F83C20002300E09C
:103CF000022318461837BD4680BD00BF02001000E1
:103D00000000FFFF80B588B002AFF860084611469A
:103D10001A4603467B810B463B811346FB80FB68BA
:103D20001B681A68FB681B6842F480721A607B6A21
:103D300000933B6A00224FF00111F86800F078F818
:103D40000346002B0DD0FB681B681B6803F48073CF
:103D5000B3F5807F03D1FB684FF400721A6403232C
:103D60005FE07B89DBB21A46FB681B6802F0FE024B
:103D70001A617B6A3A6A2D49F86800F0D3F8034665
:103D8000002B01D001234CE000237B61FB681B6802
:103D90005B697B61FB681B689B697B617B697A6AF5
:103DA000396AF86800F05EF90346002B0DD0FB6815
:103DB0001B6C042B07D1FB681B681A68FB681B6827
:103DC00042F400721A6001232BE0FB88012B05D11D
:103DD0003B89DAB2FB681B681A6121E03B891B0A48
:103DE0009BB2DAB2FB681B681A617A6A396AF868B2
:103DF00000F038F90346002B0DD0FB681B6C042B38
:103E000007D1FB681B681A68FB681B6842F40072E4
:103E10001A60012305E03B89DAB2FB681B681A616E
:103E2000002318461837BD4680BD00BF02000100C0
:103E300080B584B000AFF860B9603B601346FB7199
:103E400048E03B68B3F1FF3F44D0FEF7FFFD024678
:103E5000BB69D31A3A689A4202D33B68002B39D126
:103E6000BB681B0CDBB2012B0DD1FB681B685B69C7
:103E7000DA43BB6813409BB2002B0CBF0123002325
:103E8000DBB21A460CE0FB681B689B69DA43BB682F
:103E900013409BB2002B0CBF01230023DBB21A4658
:103EA000FB799A4216D1FB6800221A63FB68202234
:103EB00083F83D20FB68002283F83E20FB681B6CE2
:103EC00043F02002FB681A64FB68002283F83C2060
:103ED000012323E0BB681B0CDBB2012B0DD1FB6877
:103EE0001B685B69DA43BB6813409BB2002B0CBFB5
:103EF00001230023DBB21A460CE0FB681B689B69B8
:103F0000DA43BB6813409BB2002B0CBF0123002394
:103F1000DBB21A46FB799A4293D000231846103739
:103F2000BD4680BD80B584B000AFF860B9607A60EE
:103F30003B6071E0FB681B685B6903F48063B3F569
:103F4000806F23D1FB681B681A68FB681B6842F40A
:103F500000721A60FB681B686FF480625A61FB682C
:103F600000221A63FB68202283F83D20FB680022B0
:103F700083F83E20FB681B6C43F00402FB681A6464
:103F8000FB68002283F83C20012367E07B68B3F1E3
:103F9000FF3F41D0FEF75AFD02463B68D31A7A68CC
:103FA0009A4202D37B68002B36D1BB681B0CDBB274
:103FB000012B0CD1FB681B685B69DA43BB681340BB
:103FC0009BB2002B14BF01230023DBB20BE0FB6884
:103FD0001B689B69DA43BB6813409BB2002B14BF7C
:103FE00001230023DBB2002B16D0FB6800221A63EA
:103FF000FB68202283F83D20FB68002283F83E20E6
:10400000FB681B6C43F02002FB681A64FB6800220B
:1040100083F83C20012321E0BB681B0CDBB2012BA1
:104020000CD1FB681B685B69DA43BB6813409BB229
:10403000002B14BF01230023DBB20BE0FB681B68DD
:104040009B69DA43BB6813409BB2002B14BF01236A
:104050000023DBB2002B7FF46DAF0023184610372E
:10406000BD4680BD80B584B000AFF860B9607A60AD
:1040700034E0F86800F086F80346002B01D00123F5
:1040800034E0BB68B3F1FF3F28D0FEF7DFFC024607
:104090007B68D31ABA689A4202D3BB68002B1DD141
:1040A000FB681B685B6903F08003802B16D0FB68FC
:1040B00000221A63FB68202283F83D20FB6800225F
:1040C00083F83E20FB681B6C43F02002FB681A64F7
:1040D000FB68002283F83C20012307E0FB681B6893
:1040E0005B6903F08003802BC3D10023184610378F
:1040F000BD4680BD80B584B000AFF860B9607A601D
:1041000034E0F86800F03EF80346002B01D00123AC
:1041100034E0BB68B3F1FF3F28D0FEF797FC0246BE
:104120007B68D31ABA689A4202D3BB68002B1DD1B0
:10413000FB681B685B6903F00403042B16D0FB6863
:1041400000221A63FB68202283F83D20FB680022CE
:1041500083F83E20FB681B6C43F02002FB681A6466
:10416000FB68002283F83C20012307E0FB681B6802
:104170005B6903F00403042BC3D1002318461037F6
:10418000BD4680BD80B483B000AF78607B681B689B
:104190005B6903F48063B3F5806F1BD17B681B6898
:1041A0006FF480625A617B6800221A637B68202268
:1041B00083F83D207B68002283F83E207B681B6CDF
:1041C00043F004027B681A647B68002283F83C2079
:1041D000012300E0002318460C37BD465DF8047B40
:1041E0007047000080B586B000AF78607B68002B18
:1041F00001D1012367E27B681B6803F00103002BF8
:1042000075D0884B9B6803F00C03042B0CD0854BB6
:104210009B6803F00C03082B12D1824B5B6803F4FC
:104220008003B3F5800F0BD17E4B1B6803F4003382
:10423000002B5BD07B685B68002B57D1012342E2E7
:104240007B685B68B3F5803F06D1764B1B68754A87
:1042500043F4803313601DE07B685B68B3F5A02FE7
:104260000CD1704B1B686F4A43F4802313606D4B75
:104270001B686C4A43F4803313600BE0694B1B6886
:10428000684A23F480331360664B1B68654A23F445
:10429000802313607B685B68002B13D0FEF7D6FB8E
:1042A000386108E0FEF7D2FB02463B69D31A642B63
:1042B00001D9032307E25B4B1B6803F40033002B97
:1042C000F0D014E0FEF7C2FB386108E0FEF7BEFB59
:1042D00002463B69D31A642B01D90323F3E1514B06
:1042E0001B6803F40033002BF0D100E000BF7B68B3
:1042F0001B6803F00203002B63D04A4B9B6803F05A
:104300000C03002B0BD0474B9B6803F00C03082BCE
:104310001CD1444B5B6803F48003002B16D1414B46
:104320001B6803F00203002B05D07B68DB68012BC0
:1043300001D00123C7E13B4B1B6823F0F8027B68E7
:104340001B69DB00374913430B603AE07B68DB688D
:10435000002B20D0344B01221A60FEF777FB386126
:1043600008E0FEF773FB02463B69D31A022B01D922
:104370000323A8E12B4B1B6803F00203002BF0D0B2
:10438000284B1B6823F0F8027B681B69DB0025497A
:1043900013430B6015E0244B00221A60FEF756FB16
:1043A000386108E0FEF752FB02463B69D31A022B44
:1043B00001D9032387E11B4B1B6803F00203002B89
:1043C000F0D17B681B6803F00803002B36D07B68B4
:1043D0005B69002B16D0154B01221A60FEF736FBE5
:1043E000386108E0FEF732FB02463B69D31A022B24
:1043F00001D9032367E10B4B5B6F03F00203002B32
:10440000F0D01BE0094B00221A60FEF71FFB386159
:104410000EE0FEF71BFB02463B69D31A022B07D9BD
:10442000032350E10038024000004742800E47421B
:10443000884B5B6F03F00203002BEAD17B681B689B
:1044400003F00403002B00F097800023FB75814BE1
:104450001B6C03F08053002B0FD10023BB607D4BFE
:104460001B6C7C4A43F0805313647A4B1B6C03F043
:104470008053BB60BB680123FB75774B1B6803F45B
:104480008073002B18D1744B1B68734A43F48073FC
:104490001360FEF7DBFA386108E0FEF7D7FA024650
:1044A0003B69D31A022B01D903230CE16A4B1B6829
:1044B00003F48073002BF0D07B689B68012B06D13E
:1044C000644B1B6F634A43F0010313671CE07B6876
:1044D0009B68052B0CD15F4B1B6F5E4A43F00403B6
:1044E00013675C4B1B6F5B4A43F0010313670BE0E0
:1044F000584B1B6F574A23F001031367554B1B6F33
:10450000544A23F0040313677B689B68002B15D083
:10451000FEF79CFA38610AE0FEF798FA02463B691A
:10452000D31A41F28832934201D90323CBE0494B9D
:104530001B6F03F00203002BEED014E0FEF786FAA7
:1045400038610AE0FEF782FA02463B69D31A41F26B
:104550008832934201D90323B5E03E4B1B6F03F031
:104560000203002BEED1FB7D012B05D1394B1B6CD7
:10457000384A23F0805313647B689B69002B00F05A
:10458000A180344B9B6803F00C03082B5CD07B6844
:104590009B69022B41D1314B00221A60FEF756FA7B
:1045A000386108E0FEF752FA02463B69D31A022B43
:1045B00001D9032387E0274B1B6803F00073002B0E
:1045C000F0D17B68DA697B681B6A1A437B685B6A97
:1045D0009B011A437B689B6A5B08013B1B041A43DF
:1045E0007B68DB6A1B061B4913434B601B4B012294
:1045F0001A60FEF72BFA386108E0FEF727FA024648
:104600003B69D31A022B01D903235CE0114B1B68D1
:1046100003F00073002BF0D054E0104B00221A601E
:10462000FEF714FA386108E0FEF710FA02463B691B
:10463000D31A022B01D9032345E0064B1B6803F074
:104640000073002BF0D13DE07B689B69012B07D103
:10465000012338E00038024000700040600047420B
:104660001B4B5B68FB607B689B69012B28D0FB6858
:1046700003F480027B68DB699A4221D1FB6803F076
:104680003F027B681B6A9A421AD1FA6847F6C073E8
:1046900013407A68526A9201934211D1FB6803F485
:1046A00040327B689B6A5B08013B1B049A4207D13E
:1046B000FB6803F070627B68DB6A1B069A4201D0DC
:1046C000012300E0002318461837BD4680BD00BF17
:1046D0000038024080B584B000AF786039607B68F4
:1046E000002B01D10123CCE0684B1B6803F00703CA
:1046F0003A689A420CD9654B3A68D2B21A70634B49
:104700001B6803F007033A689A4201D00123B8E01E
:104710007B681B6803F00203002B20D07B681B68BA
:1047200003F00403002B05D0594B9B68584A43F40F
:10473000E05393607B681B6803F00803002B05D0EF
:10474000534B9B68524A43F460439360504B9B68C1
:1047500023F0F0027B689B684D4913438B607B68B4
:104760001B6803F00103002B44D07B685B68012BBE
:1047700007D1474B1B6803F40033002B19D10123E9
:104780007FE07B685B68022B03D07B685B68032B50
:1047900007D13F4B1B6803F00073002B09D10123A5
:1047A0006FE03B4B1B6803F00203002B01D1012398
:1047B00067E0374B9B6823F003027B685B683449F2
:1047C00013438B60FEF742F9F8600AE0FEF73EF90A
:1047D0000246FB68D31A41F28832934201D903237F
:1047E0004FE02B4B9B6803F00C027B685B689B00DF
:1047F0009A42EBD1254B1B6803F007033A689A42B3
:104800000CD2224B3A68D2B21A70204B1B6803F0CC
:1048100007033A689A4201D0012332E07B681B68A3
:1048200003F00403002B08D0194B9B6823F4E052DB
:104830007B68DB68164913438B607B681B6803F059
:104840000803002B09D0124B9B6823F460427B685D
:104850001B69DB000E4913438B6000F021F8024610
:104860000B4B9B681B0903F00F030A49CB5C22FA30
:1048700003F3094A1360094B1B681846FDF7E8FE6D
:10488000002318461037BD4680BD00BF003C0240E3
:104890000038024088CE00084C0000205000002064
:1048A0002DE9B04F90B000AF00237B630023FB6382
:1048B00000233B630023BB63594B9B6803F00C034D
:1048C000082B0DD0082B00F2A180002B02D0042B66
:1048D00003D09BE0534BBB639BE0534BBB6398E01F
:1048E0004F4B5B6803F03F037B634D4B5B6803F406
:1048F0008003002B28D04A4B5B689B0900223B6257
:104900007A623B6AC3F308000021474B03FB01F2C4
:10491000002300FB03F31344434AA0FB0212FA6294
:104920000A46BA62FA6A1344FB627B6B0022BB61DF
:10493000FA61D7E90623D7E90A01FCF7ADF9024687
:104940000B461346FB6353E0354B5B689B09002223
:104950003B617A613B69C3F3080A4FF0000B524692
:104960005B464FF000004FF00001590141EAD2616F
:10497000500102460B46B2EB0A0863EB0B094FF0FD
:1049800000024FF000034FEA891343EA98634FEAAD
:104990008812B2EB080463EB09054FF000024FF0F8
:1049A0000003EB0043EA5473E20014461D4614EB87
:1049B0000A033B6045EB0B037B604FF000024FF0B6
:1049C0000003D7E9004529468B02214643EA91536B
:1049D00021468A02104619467B6B0022BB60FA60B2
:1049E000D7E90223FCF758F902460B461346FB634E
:1049F0000B4B5B681B0C03F0030301335B003B6351
:104A0000FA6B3B6BB2FBF3F3BB6302E0054BBB639A
:104A100000BFBB6B18464037BD46BDE8B08F00BF36
:104A2000003802400024F40040787D0180B400AFDB
:104A3000034B1B681846BD465DF8047B704700BFFA
:104A40004C00002080B500AFFFF7F0FF0246054B99
:104A50009B689B0A03F007030349CB5C22FA03F32C
:104A6000184680BD0038024098CE000880B500AFDF
:104A7000FFF7DCFF0246054B9B685B0B03F0070367
:104A80000349CB5C22FA03F3184680BD003802408C
:104A900098CE000880B483B000AF786039607B683E
:104AA0000F221A60124B9B6803F003027B685A6066
:104AB0000F4B9B6803F0F0027B689A600C4B9B687D
:104AC00003F4E0527B68DA60094B9B68DB0803F46F
:104AD000E0527B681A61074B1B6803F007023B68D2
:104AE0001A6000BF0C37BD465DF8047B704700BFFD
:104AF00000380240003C024080B582B000AF7860D0
:104B00007B68002B01D1012341E07B6893F83D30A5
:104B1000DBB2002B06D17B68002283F83C2078684A
:104B2000FDF790FB7B68022283F83D207B681A68C2
:104B30007B6804331946104600F0BAFC7B680122FA
:104B400083F846207B68012283F83E207B6801229F
:104B500083F83F207B68012283F840207B68012294
:104B600083F841207B68012283F842207B68012280
:104B700083F843207B68012283F844207B6801226C
:104B800083F845207B68012283F83D2000231846E6
:104B90000837BD4680BD000080B485B000AF7860A6
:104BA0007B6893F83D30DBB2012B01D0012344E058
:104BB0007B68022283F83D207B681B68DA687B688B
:104BC0001B6842F00102DA607B681B681E4A934250
:104BD00018D07B681B68B3F1804F13D07B681B68CB
:104BE0001A4A93420ED07B681B68194A934209D037
:104BF0007B681B68174A934204D07B681B68164A7F
:104C0000934211D17B681B689B6803F00703FB602C
:104C1000FB68062B10D07B681B681A687B681B68D2
:104C200042F001021A6007E07B681B681A687B6823
:104C30001B6842F001021A60002318461437BD4673
:104C40005DF8047B704700BF000001400004004095
:104C500000080040000C00400040014080B582B0D8
:104C600000AF78607B68002B01D1012341E07B68B5
:104C700093F83D30DBB2002B06D17B68002283F82D
:104C80003C20786800F039F87B68022283F83D20E8
:104C90007B681A687B6804331946104600F008FCEC
:104CA0007B68012283F846207B68012283F83E203E
:104CB0007B68012283F83F207B68012283F8402033
:104CC0007B68012283F841207B68012283F842201F
:104CD0007B68012283F843207B68012283F844200B
:104CE0007B68012283F845207B68012283F83D2000
:104CF000002318460837BD4680BD80B483B000AF9E
:104D0000786000BF0C37BD465DF8047B704780B506
:104D100082B000AF78607B68002B01D1012341E0B5
:104D20007B6893F83D30DBB2002B06D17B68002214
:104D300083F83C20786800F039F87B68022283F819
:104D40003D207B681A687B6804331946104600F0E2
:104D5000AFFB7B68012283F846207B68012283F841
:104D60003E207B68012283F83F207B68012283F884
:104D700040207B68012283F841207B68012283F870
:104D800042207B68012283F843207B68012283F85C
:104D900044207B68012283F845207B68012283F848
:104DA0003D20002318460837BD4680BD80B483B03F
:104DB00000AF786000BF0C37BD465DF8047B7047DC
:104DC00080B584B000AF78607B681B68DB68FB60EF
:104DD0007B681B681B69BB60BB6803F00203002B88
:104DE00020D0FB6803F00203002B1BD07B681B68FC
:104DF0006FF002021A617B6801221A777B681B68D8
:104E00009B6903F00303002B03D07868FCF74CFB8D
:104E100005E0786800F02EFB786800F035FB7B68D1
:104E200000221A77BB6803F00403002B20D0FB6834
:104E300003F00403002B1BD07B681B686FF0040297
:104E40001A617B6802221A777B681B689B6903F4EE
:104E50004073002B03D07868FCF726FB05E07868E8
:104E600000F008FB786800F00FFB7B6800221A77DF
:104E7000BB6803F00803002B20D0FB6803F0080395
:104E8000002B1BD07B681B686FF008021A617B68DF
:104E900004221A777B681B68DB6903F00303002B8D
:104EA00003D07868FCF700FB05E0786800F0E2FAD0
:104EB000786800F0E9FA7B6800221A77BB6803F093
:104EC0001003002B20D0FB6803F01003002B1BD035
:104ED0007B681B686FF010021A617B6808221A77E2
:104EE0007B681B68DB6903F44073002B03D0786890
:104EF000FCF7DAFA05E0786800F0BCFA786800F0B0
:104F0000C3FA7B6800221A77BB6803F00103002B09
:104F10000CD0FB6803F00103002B07D07B681B68F3
:104F20006FF001021A617868FDF72AF8BB6803F098
:104F30008003002B0CD0FB6803F08003002B07D00C
:104F40007B681B686FF080021A61786800F0F2FEDF
:104F5000BB6803F04003002B0CD0FB6803F0400358
:104F6000002B07D07B681B686FF040021A617868DD
:104F700000F094FABB6803F02003002B0CD0FB6810
:104F800003F02003002B07D07B681B686FF0200222
:104F90001A61786800F0C4FE00BF1037BD4680BDBE
:104FA00080B586B000AFF860B9607A600023FB7509
:104FB000FB6893F83C30012B01D1022388E0FB68A9
:104FC000012283F83C207B68002B1BD1FB6818680A
:104FD000BB681968BB685A68BB68DB6800F07AFC7C
:104FE000FB681B689A69FB681B6822F00C029A61D7
:104FF000FB681B689969BB689A68FB681B680A4371
:105000009A6160E07B68042B1CD1FB681868BB6860
:105010001968BB685A68BB68DB6800F0F2FCFB6883
:105020001B689A69FB681B6822F440629A61FB68FE
:105030001B689969BB689B681A02FB681B680A4376
:105040009A6140E07B68082B1BD1FB681868BB683D
:105050001968BB685A68BB68DB6800F03FFDFB68F5
:105060001B68DA69FB681B6822F00C02DA61FB68D6
:105070001B68D969BB689A68FB681B680A43DA61D8
:1050800021E07B680C2B1CD1FB681868BB68196891
:10509000BB685A68BB68DB6800F05CFDFB681B6896
:1050A000DA69FB681B6822F44062DA61FB681B68FE
:1050B000D969BB689B681A02FB681B680A43DA61FE
:1050C00001E00123FB75FB68002283F83C20FB7D97
:1050D00018461837BD4680BD80B586B000AFF86071
:1050E000B9607A600023FB75FB6893F83C30012BB4
:1050F00001D10223AEE0FB68012283F83C207B68EB
:105100000C2B00F29F8001A252F823F041510008BD
:1051100045520008455200084552000881510008D8
:10512000455200084552000845520008C351000886
:105130004552000845520008455200080352000835
:10514000FB681B68B968184600F038FAFB681B68F2
:105150009A69FB681B6842F008029A61FB681B6849
:105160009A69FB681B6822F004029A61FB681B685D
:105170009969BB681A69FB681B680A439A6164E015
:10518000FB681B68B968184600F07EFAFB681B686C
:105190009A69FB681B6842F400629A61FB681B68AD
:1051A0009A69FB681B6822F480629A61FB681B683D
:1051B0009969BB681B691A02FB681B680A439A61FC
:1051C00043E0FB681B68B968184600F0C9FAFB6841
:1051D0001B68DA69FB681B6842F00802DA61FB6849
:1051E0001B68DA69FB681B6822F00402DA61FB685D
:1051F0001B68D969BB681A69FB681B680A43DA61D6
:1052000023E0FB681B68B968184600F013FBFB68D5
:105210001B68DA69FB681B6842F40062DA61FB68AC
:105220001B68DA69FB681B6822F48062DA61FB683C
:105230001B68D969BB681B691A02FB681B680A43B3
:10524000DA6102E00123FB7500BFFB68002283F8EE
:105250003C20FB7D18461837BD4680BD80B584B024
:1052600000AF786039600023FB737B6893F83C30B3
:10527000012B01D10223B4E07B68012283F83C209A
:105280007B68022283F83D207B681B689B68BB60BB
:10529000BB6823F07703BB60BB6823F47F43BB602C
:1052A0007B681B68BA689A603B681B68B3F5005F4F
:1052B0003ED0B3F5005F00F28780B3F5805F00F069
:1052C0008680B3F5805F7FD8702B1AD0702B7BD887
:1052D000602B50D0602B77D8502B3CD0502B73D8FC
:1052E000402B58D0402B6FD8302B64D0302B6BD84C
:1052F000202B60D0202B67D8002B5CD0102B5AD0ED
:1053000062E07B6818683B6899683B685A683B684C
:10531000DB6800F077FC7B681B689B68BB60BB6840
:1053200043F07703BB607B681B68BA689A604FE004
:105330007B6818683B6899683B685A683B68DB681B
:1053400000F060FC7B681B689A687B681B6842F40D
:1053500080429A603CE07B6818683B6859683B680B
:10536000DB681A4600F01EFB7B681B68502118465C
:1053700000F02DFC2CE07B6818683B6859683B689E
:10538000DB681A4600F07AFB7B681B6860211846D0
:1053900000F01DFC1CE07B6818683B6859683B689E
:1053A000DB681A4600F0FEFA7B681B68402118464D
:1053B00000F00DFC0CE07B681A683B681B6819461E
:1053C000104600F004FC03E00123FB7300E000BF83
:1053D0007B68012283F83D207B68002283F83C2013
:1053E000FB7B18461037BD4680BD000080B485B0F9
:1053F00000AF786039600023FB603B680C2B31D82C
:1054000001A252F823F000BF3D5400086554000883
:1054100065540008655400084754000865540008A6
:10542000655400086554000851540008655400088C
:1054300065540008655400085B5400087B681B68CD
:105440005B6BFB600FE07B681B689B6BFB600AE09B
:105450007B681B68DB6BFB6005E07B681B681B6C73
:10546000FB6000E000BFFB6818461437BD465DF8DE
:10547000047B704780B483B000AF786000BF0C3706
:10548000BD465DF8047B704780B483B000AF7860A0
:1054900000BF0C37BD465DF8047B704780B483B015
:1054A00000AF786000BF0C37BD465DF8047B7047E5
:1054B00080B485B000AF786039607B681B68FB60A2
:1054C0007B68374A93420FD07B68B3F1804F0BD093
:1054D0007B68344A934207D07B68334A934203D0B7
:1054E0007B68324A934208D1FB6823F07003FB606B
:1054F0003B685B68FA681343FB607B68284A934209
:105500001BD07B68B3F1804F17D07B68254A93424C
:1055100013D07B68244A93420FD07B68234A93427E
:105520000BD07B68224A934207D07B68214A934282
:1055300003D07B68204A934208D1FB6823F4407370
:10554000FB603B68DB68FA681343FB60FB6823F091
:1055500080023B685B691343FB603B689A687B6829
:10556000DA623B681A687B689A627B680C4A9342ED
:1055700003D13B681A697B681A637B681B6843F038
:1055800004027B681A607B6801225A617B68FA68B2
:105590001A6000BF1437BD465DF8047B704700BF3A
:1055A000000001400004004000080040000C0040E2
:1055B00000400140004401400048014080B487B0F1
:1055C00000AF786039607B681B6A7B617B681B6A0F
:1055D00023F001027B681A627B685B683B617B6831
:1055E0009B69FB60FB6823F07003FB60FB6823F0A2
:1055F0000303FB603B681B68FA681343FB607B692D
:1056000023F002037B613B689B687A6913437B61EB
:105610007B681C4A93420CD17B6923F008037B61B1
:105620003B68DB687A6913437B617B6923F0040381
:105630007B617B68134A934211D13B6923F48073E9
:105640003B613B6923F400733B613B685B693A69EA
:1056500013433B613B689B693A6913433B617B6839
:105660003A695A607B68FA689A613B685A687B6855
:105670005A637B687A691A6200BF1C37BD465DF8C1
:10568000047B70470000014080B487B000AF7860B1
:1056900039607B681B6A7B617B681B6A23F01002A0
:1056A0007B681A627B685B683B617B689B69FB6017
:1056B000FB6823F4E043FB60FB6823F44073FB606A
:1056C0003B681B681B02FA681343FB607B6923F08D
:1056D00020037B613B689B681B017A6913437B61F4
:1056E0007B681E4A93420DD17B6923F080037B6166
:1056F0003B68DB681B017A6913437B617B6923F09C
:1057000040037B617B68154A934213D13B6923F4C4
:1057100080633B613B6923F400633B613B685B69E9
:105720009B003A6913433B613B689B699B003A6964
:1057300013433B617B683A695A607B68FA689A61F7
:105740003B685A687B689A637B687A691A6200BF13
:105750001C37BD465DF8047B704700BF0000014068
:1057600080B487B000AF786039607B681B6A7B616A
:105770007B681B6A23F480727B681A627B685B68B3
:105780003B617B68DB69FB60FB6823F07003FB60B7
:10579000FB6823F00303FB603B681B68FA68134354
:1057A000FB607B6923F400737B613B689B681B0291
:1057B0007A6913437B617B681D4A93420DD17B69F3
:1057C00023F400637B613B68DB681B027A69134347
:1057D0007B617B6923F480637B617B68144A93421D
:1057E00013D13B6923F480533B613B6923F400539D
:1057F0003B613B685B691B013A6913433B613B6852
:105800009B691B013A6913433B617B683A695A60A3
:105810007B68FA68DA613B685A687B68DA637B68A0
:105820007A691A6200BF1C37BD465DF8047B704779
:105830000000014080B487B000AF786039607B68B9
:105840001B6A3B617B681B6A23F480527B681A6287
:105850007B685B687B617B68DB69FB60FB6823F4CA
:10586000E043FB60FB6823F44073FB603B681B680C
:105870001B02FA681343FB603B6923F400533B614E
:105880003B689B681B033A6913433B617B68104A82
:10589000934209D17B6923F480437B613B685B6958
:1058A0009B017A6913437B617B687A695A607B68E4
:1058B000FA68DA613B685A687B681A647B683A69FF
:1058C0001A6200BF1C37BD465DF8047B704700BFFD
:1058D0000000014080B487B000AFF860B9607A6022
:1058E0003B60FB681B6A3B61FB681B6A23F001029B
:1058F000FB681A62FB689B697B61FB68244A9342E0
:1059000013D0FB68B3F1804F0FD0FB68214A93425C
:105910000BD0FB68204A934207D0FB681F4A934292
:1059200003D0FB681E4A934201D1012300E000230B
:10593000002B08D07B6923F003037B617A697B68C5
:1059400013437B6103E07B6943F001037B617B6967
:1059500023F0F0037B613B681B01DBB27A691343E0
:105960007B613B6923F00A033B61BB6803F00A03D8
:105970003A6913433B61FB687A699A61FB683A694B
:105980001A6200BF1C37BD465DF8047B704700BF3C
:10599000000001400004004000080040000C0040EE
:1059A0000040014080B487B000AFF860B9607A6011
:1059B000FB681B6A7B61FB681B6A23F00102FB68C2
:1059C0001A62FB689B693B613B6923F0F0033B6112
:1059D0007B681B013A6913433B617B6923F00A032F
:1059E0007B617A69BB6813437B61FB683A699A61A2
:1059F000FB687A691A6200BF1C37BD465DF8047BFC
:105A0000704780B487B000AFF860B9607A603B60DF
:105A1000FB681B6A7B61FB681B6A23F01002FB6852
:105A20001A62FB689B693B613B6923F440733B61ED
:105A30007B681B023A6913433B613B6923F4704363
:105A40003B613B681B039BB23A6913433B617B6933
:105A500023F0A0037B61BB681B0103F0A0037A69FC
:105A600013437B61FB683A699A61FB687A691A6241
:105A700000BF1C37BD465DF8047B704780B487B01B
:105A800000AFF860B9607A60FB681B6A7B61FB68F5
:105A90001B6A23F01002FB681A62FB689B693B617A
:105AA0003B6923F470433B617B681B033A691343F2
:105AB0003B617B6923F0A0037B61BB681B017A69B2
:105AC00013437B61FB683A699A61FB687A691A62E1
:105AD00000BF1C37BD465DF8047B704780B487B0BB
