:020000040800F2
:100000000000022045500008ED4D0008F54D0008A5
:10001000FD4D0008054E00080D4E000800000000D0
:10002000000000000000000000000000F1D1000806
:10003000154E00080000000041D4000891A10008FE
:1000400095500008955000089550000895500008FC
:100050009550000895500008234E00089550000860
:1000600095500008955000089550000895500008DC
:1000700095500008955000089550000895500008CC
:100080009550000895500008314E0008000000000F
:100090000000000000000000000000009550000873
:1000A00095500008454E0008594E0008955000082C
:1000B00095500008955000086D4E000895500008B6
:1000C000955000089550000895500008955000087C
:1000D00095500008814E000895500008000000006F
:1000E0009550000895500008955000080000000049
:1000F0000000000000000000000000009550000813
:100100000000000095500008955000089550000828
:1001100000000000000000000000000000000000DF
:10012000955000089550000895500008955000081B
:1001300095500008000000000000000000000000D2
:1001400000000000000000000000000095500008C2
:1001500095500008955000089550000895500008EB
:1001600095500008955000080000000000000000B5
:10017000000000000000000000000000000000007F
:100180000000000095500008000000000000000082
:0801900095500008955000088D
:1001A00010B5054C237833B9044B13B10448AFF3B1
:1001B00000800123237010BD7C020020000000009D
:1001C0007034010808B5034B1BB103490348AFF372
:1001D000008008BD0000000080020020703401088B
:1001E00001F0FF01102A2BDB10F0070F08D010F8E8
:1001F000013B013A8B422DD010F0070F42B3F6D1EC
:10020000F0B441EA012141EA014122F007047FF004
:1002100000070023F0E80256083C85EA010586EA5B
:10022000010685FA47F5A3FA87F586FA47F6A5FA97
:1002300087F68EB9EED1F0BC01F0FF0102F00702A3
:1002400032B110F8013B013A83EA010313B1F8D14E
:100250000020704701387047002D06BF354603382F
:10026000073815F0010F07D1013015F4807F02BF68
:10027000013015F4C03F0130F0BC0138704700BFB9
:10028000034613F8012B002AFBD1181A01387047D6
:1002900081F0004102E000BF83F0004330B54FEA37
:1002A00041044FEA430594EA050F08BF90EA020FA4
:1002B0001FBF54EA000C55EA020C7FEA645C7FEA37
:1002C000655C00F0E2804FEA5454D4EB5555B8BF5A
:1002D0006D420CDD2C4480EA020281EA030382EACB
:1002E000000083EA010180EA020281EA0303362D5D
:1002F00088BF30BD11F0004F4FEA01314FF4801C30
:100300004CEA113102D0404261EB410113F0004F41
:100310004FEA03334CEA133302D0524263EB4303F8
:1003200094EA050F00F0A780A4F10104D5F1200E96
:100330000DDB02FA0EFC22FA05F2801841F10001F1
:1003400003FA0EF2801843FA05F359410EE0A5F1C5
:1003500020050EF1200E012A03FA0EFC28BF4CF0F6
:10036000020C43FA05F3C01851EBE37101F00045AC
:1003700007D54FF0000EDCF1000C7EEB00006EEBB9
:100380000101B1F5801F1BD3B1F5001F0CD3490843
:100390005FEA30004FEA3C0C04F101044FEA44529A
:1003A00012F5800F80F09A80BCF1004F08BF5FEA21
:1003B000500C50F1000041EB045141EA050130BD01
:1003C0005FEA4C0C404141EB0101013C28BFB1F513
:1003D000801FE9D291F0000F04BF01460020B1FA5E
:1003E00081F308BF2033A3F10B03B3F120020CDA31
:1003F0000C3208DD02F1140CC2F10C0201FA0CF00F
:1004000021FA02F10CE002F11402D8BFC2F1200C73
:1004100001FA02F120FA0CFCDCBF41EA0C01904029
:10042000E41AA2BF01EB0451294330BD6FEA040472
:100430001F3C1CDA0C340EDC04F11404C4F120025D
:1004400020FA04F001FA02F340EA030021FA04F36F
:1004500045EA030130BDC4F10C04C4F1200220FAC6
:1004600002F001FA04F340EA0300294630BD21FA04
:1004700004F0294630BD94F0000F83F4801306BFCA
:1004800081F480110134013D4EE77FEA645C18BFBE
:100490007FEA655C29D094EA050F08BF90EA020F55
:1004A00005D054EA000C04BF1946104630BD91EA4D
:1004B000030F1EBF0021002030BD5FEA545C05D150
:1004C0004000494128BF41F0004130BD14F580048F
:1004D0003CBF01F5801130BD01F0004545F0FE4103
:1004E00041F470014FF0000030BD7FEA645C1ABF38
:1004F000194610467FEA655C1CBF0B46024650EA6F
:10050000013406BF52EA033591EA030F41F400219A
:1005100030BD00BF90F0000F04BF0021704730B520
:100520004FF4806404F132044FF000054FF00001F5
:1005300050E700BF90F0000F04BF0021704730B5B6
:100540004FF4806404F1320410F0004548BF40428B
:100550004FF000013EE700BF42004FEAE2014FEAE0
:1005600031014FEA02701FBF12F07F4393F07F4FBB
:1005700081F06051704732F07F4208BF704793F0BE
:100580007F4F04BF41F40021704730B54FF46074D1
:1005900001F0004521F000411CE700BF50EA0102D4
:1005A00008BF704730B54FF000050AE050EA01027D
:1005B00008BF704730B511F0004502D5404261EBED
:1005C00041014FF4806404F132045FEA915C3FF42E
:1005D000D8AE4FF003025FEADC0C18BF03325FEACB
:1005E000DC0C18BF033202EBDC02C2F1200300FA7C
:1005F00003FC20FA02F001FA03FE40EA0E0021FAA1
:1006000002F11444BDE600BF70B54FF0FF0C4CF48E
:10061000E06C1CEA11541DBF1CEA135594EA0C0F40
:1006200095EA0C0F00F0DEF82C4481EA030621EA7B
:100630004C5123EA4C5350EA013518BF52EA0335B6
:1006400041F4801143F4801338D0A0FB02CE4FF068
:100650000005E1FB02E506F00042E0FB03E54FF098
:100660000006E1FB03569CF0000F18BF4EF0010E90
:10067000A4F1FF04B6F5007F64F5407404D25FEA8C
:100680004E0E6D4146EB060642EAC62141EA55513F
:100690004FEAC52040EA5E504FEACE2EB4F1FD0C81
:1006A00088BFBCF5E06F1ED8BEF1004F08BF5FEAFF
:1006B000500E50F1000041EB045170BD06F00046B1
:1006C00046EA010140EA020081EA0301B4EB5C045E
:1006D000C2BFD4EB0C0541EA045170BD41F4801156
:1006E0004FF0000E013C00F3AB8014F1360FDEBF7B
:1006F000002001F0004170BDC4F10004203C35DA57
:100700000C341BDC04F11404C4F1200500FA05F3D9
:1007100020FA04F001FA05F240EA020001F000427A
:1007200021F0004110EBD37021FA04F642EB0601F0
:100730005EEA430E08BF20EAD37070BDC4F10C041A
:10074000C4F1200500FA04F320FA05F001FA04F2DE
:1007500040EA020001F0004110EBD37041F10001CA
:100760005EEA430E08BF20EAD37070BDC4F12005D5
:1007700000FA05F24EEA020E20FA04F301FA05F23D
:1007800043EA020321FA04F001F0004121FA04F2E5
:1007900020EA020000EBD3705EEA430E08BF20EAB5
:1007A000D37070BD94F0000F0FD101F000464000EF
:1007B00041EB010111F4801F08BF013CF7D041EA71
:1007C000060195F0000F18BF704703F00046520075
:1007D00043EB030313F4801F08BF013DF7D043EA46
:1007E0000603704794EA0C0F0CEA135518BF95EAFC
:1007F0000C0F0CD050EA410618BF52EA4306D1D183
:1008000081EA030101F000414FF0000070BD50EAA1
:10081000410606BF1046194652EA430619D094EA2B
:100820000C0F02D150EA013613D195EA0C0F05D115
:1008300052EA03361CBF104619460AD181EA030169
:1008400001F0004141F0FE4141F470014FF0000021
:1008500070BD41F0FE4141F4780170BD70B54FF0BC
:10086000FF0C4CF4E06C1CEA11541DBF1CEA13553C
:1008700094EA0C0F95EA0C0F00F0A7F8A4EB05041E
:1008800081EA030E52EA03354FEA013100F0888015
:100890004FEA03334FF0805545EA131343EA1263DE
:1008A0004FEA022245EA111545EA10654FEA002693
:1008B0000EF000419D4208BF964244F1FD0404F54C
:1008C000407402D25B084FEA3202B61A65EB0305A8
:1008D0005B084FEA32024FF480104FF4002CB6EB65
:1008E000020E75EB030E22BFB61A754640EA0C00E5
:1008F0005B084FEA3202B6EB020E75EB030E22BF25
:10090000B61A754640EA5C005B084FEA3202B6EB65
:10091000020E75EB030E22BFB61A754640EA9C0024
:100920005B084FEA3202B6EB020E75EB030E22BFF4
:10093000B61A754640EADC0055EA060E18D04FEAB2
:10094000051545EA16754FEA06164FEAC30343EA52
:1009500052734FEAC2025FEA1C1CC0D111F4801F1F
:100960000BD141EA00014FF000004FF0004CB6E718
:1009700011F4801F04BF01430020B4F1FD0C88BFB7
:10098000BCF5E06F3FF6AFAEB5EB030C04BFB6EBC2
:10099000020C5FEA500C50F1000041EB045170BDB5
:1009A0000EF0004E4EEA113114EB5C04C2BFD4EBE2
:1009B0000C0541EA045170BD41F480114FF0000E66
:1009C000013C90E645EA060E8DE60CEA135594EAE2
:1009D0000C0F08BF95EA0C0F3FF43BAF94EA0C0FE5
:1009E0000AD150EA01347FF434AF95EA0C0F7FF45A
:1009F00025AF104619462CE795EA0C0F06D152EAAE
:100A000003353FF4FDAE1046194622E750EA410691
:100A100018BF52EA43067FF4C5AE50EA41047FF4A2
:100A20000DAF52EA43057FF4EBAE12E74FF0FF3C07
:100A300006E000BF4FF0010C02E000BF4FF0010CD8
:100A40004DF804CD4FEA410C7FEA6C5C4FEA430C51
:100A500018BF7FEA6C5C1BD001B050EA410C0CBFA0
:100A600052EA430C91EA030F02BF90EA020F002002
:100A7000704710F1000F91EA030F58BF994208BF69
:100A800090422CBFD8176FEAE37040F00100704726
:100A90004FEA410C7FEA6C5C02D150EA013C07D17D
:100AA0004FEA430C7FEA6C5CD6D152EA033CD3D0C8
:100AB0005DF8040B704700BF8446104662468C46C2
:100AC0001946634600E000BF01B5FFF7B7FF0028F5
:100AD00048BF10F1000F01BD4DF808EDFFF7F4FF1E
:100AE0000CBF012000205DF808FB00BF4DF808EDA9
:100AF000FFF7EAFF34BF012000205DF808FB00BFCC
:100B00004DF808EDFFF7E0FF94BF012000205DF8ED
:100B100008FB00BF4DF808EDFFF7CEFF94BF0120A2
:100B200000205DF808FB00BF4DF808EDFFF7C4FF9B
:100B300034BF012000205DF808FB00BF4FEA410CE4
:100B40007FEA6C5C02D150EA013C0AD14FEA430CC7
:100B50007FEA6C5C02D152EA033C02D14FF0000004
:100B600070474FF0010070474FEA410212F5001242
:100B700015D211D56FF47873B3EB625212D94FEAE4
:100B8000C12343F0004343EA505311F0004F23FACE
:100B900002F018BF404270474FF00000704750EA23
:100BA000013005D111F0004008BF6FF000407047E0
:100BB0004FF00000704700BF4A0011D212F500123A
:100BC00011D20DD56FF47873B3EB62520ED44FEAA5
:100BD000C12343F0004343EA505323FA02F0704725
:100BE0004FF00000704750EA013002D14FF0FF3063
:100BF00070474FF0000070474FEA4102B2F1E04306
:100C000024BFB3F5001CDCF1FE5C0DD901F0004CF3
:100C10004FEAC0024CEA5070B2F1004F40EB830043
:100C200008BF20F00100704711F0804F21D113F16F
:100C30003872BCBF01F00040704741F480114FEAA8
:100C40005252C2F11802C2F1200C10FA0CF320FA31
:100C500002F018BF40F001004FEAC1234FEAD3234E
:100C600003FA0CFC40EA0C0023FA02F34FEA4303B8
:100C7000CCE77FEA625307D150EA01331EBF4FF041
:100C8000FE4040F44000704701F0004040F0FE405C
:100C900040F40000704700BF53B94AB9002908BFAB
:100CA00000281CBF4FF0FF314FF0FF3000F0BEB9FD
:100CB000ADF1080C6DE904CE00F03CF8DDF804E07D
:100CC000DDE9022304B0704738B500220023044652
:100CD0000D46FFF70BFF28B920462946BDE83840EE
:100CE00000F00AB8204605F1004100F005F8404246
:100CF00061EB410138BD00BFD0B50C4B0022064668
:100D00000F46FFF781FCFFF757FF0446FFF702FC91
:100D1000074B0022FFF778FC02460B463046394667
:100D2000FFF7BAFAFFF748FF2146D0BD0000F03DBB
:100D30000000F0412DE9F047089D8E4604468846A4
:100D4000002B4AD18A42174662D9B2FA82F64EB1D6
:100D5000C6F1200301FA06F820FA03F3B74043EA8C
:100D60000808B4404FEA174E1FFA87FCB8FBFEF1A3
:100D7000230C0EFB118843EA084301FB0CF29A4254
:100D800009D9FB1801F1FF3080F0EA809A4240F265
:100D9000E78002393B449A1AA3B2B2FBFEF00EFB85
:100DA000102243EA024300FB0CFC9C4509D9FB18C6
:100DB00000F1FF3280F0D6809C4540F2D3803B4466
:100DC000023840EA0140A3EB0C0300211DB1F340BF
:100DD0000022C5E90032BDE8F0878B4205D90DB18C
:100DE000C5E9000100210846F5E7B3FA83F10029BF
:100DF00046D1734502D3824200F20581841A6EEB1C
:100E0000030201209046002DE5D0C5E90048E2E745
:100E1000002A00F09080B2FA82F6002E40F0A48002
:100E20008A1A030C4FEA174E80B2BCB20121B2FB02
:100E3000FEFC0EFB1C2243EA024304FB0CF29A4226
:100E400007D9FB180CF1FF3802D29A4200F2E08079
:100E5000C4469B1AB3FBFEF20EFB123340EA034377
:100E600002FB04F49C4207D9FB1802F1FF3002D2C6
:100E70009C4200F2CA8002461B1B42EA0C40A5E7D6
:100E8000C1F120068B4022FA06F71F430EFA01F447
:100E900020FA06F32EFA06FE4FEA1749234300FA1A
:100EA00001F81FFA87FCBEFBF9F01C0C09FB10EEE1
:100EB00044EA0E4400FB0CFEA64502FA01F209D9F1
:100EC0003C1900F1FF3A80F09C80A64540F29980E1
:100ED00002383C44A4EB0E041FFA83FEB4FBF9F382
:100EE00009FB13444EEA044403FB0CFCA44508D957
:100EF0003C1903F1FF3E80F08280A4457FD9023B7C
:100F00003C4443EA0040A4EB0C04A0FB02EC644523
:100F10007346E14662D35FD05DB1B8EB030264EB88
:100F2000090404FA06F622FA01F31E43CC40C5E98F
:100F3000006400214FE7B1FBF2FC010C41EA0E41D5
:100F400080B240EA01423B4638463C46B846BE467F
:100F50002026B1FBF7F1A2EB080241EA0C4166E75B
:100F6000014618E710462CE7C6F120022EFA02F3DC
:100F7000B740B14020FA02F24FEA174E0A43B3FBE2
:100F8000FEF8BCB20EFB1833110C41EA034108FB1A
:100F900004F9B04089454FEA104380B23ED9791830
:100FA00008F1FF3C01D289451FD8A1EB0901B1FB33
:100FB000FEF909FB04F80EFB191192B242EA014254
:100FC000424529D2BA1809F1FF31C4D24245C2D2F2
:100FD000A9F102013A44BEE7F0459DD2BEEB0203FF
:100FE0006CEB070C0138E14696E7A7EB0909494489
:100FF000A8F1020CB1FBFEF909FB04F8DBE773462C
:101000007FE7504666E70846FDE63B44023A33E791
:10101000ACF1020C3B441CE749469CE7A1EB0901FB
:10102000C446B1FBFEF909FB04F8C4E7704700BFF2
:1010300080B586B004AF03460A46FB711346BB7108
:10104000FB799AB23223029301230193BB1D0093D3
:101050000123EC21034805F0B7F800BF0837BD466F
:1010600080BD00BFC003002080B58AB004AF494BEB
:101070001B78002B40F08A803223029318230193BF
:101080003B46009301238822EC21434805F096F962
:101090007B781BB21B021AB23B781BB213431BB204
:1010A0009AB23E4B1A80FB781BB21B021AB2BB7875
:1010B0001BB213431AB23A4B1A807B791BB21B0244
:1010C0001AB23B791BB213431AB2364B1A80FB7922
:1010D0001BB21B021AB2BB791BB213431BB29AB2EA
:1010E000314B1A807B7A1BB21B021AB23B7A1BB2BD
:1010F00013431AB22D4B1A80FB7A1BB21B021AB291
:10110000BB7A1BB213431AB2294B1A807B7B1BB2EA
:101110001B021AB23B7B1BB213431AB2254B1A8037
:10112000FB7B1BB21B021AB2BB7B1BB213431AB26E
:10113000214B1A807B7C1BB21B021AB23B7C1BB278
:1011400013431AB21D4B1A80FB7C1BB21B021AB24E
:10115000BB7C1BB213431AB2194B1A807B7D1BB2A6
:101160001B021AB23B7D1BB213431AB2154B1A80F5
:10117000FB7D1BB21B021AB2BB7D1BB213431AB21A
:10118000114B1A80034B01221A7000E000BF183780
:10119000BD4680BD98020020C00300209A020020B6
:1011A0009C0200209E020020A0020020A20200203B
:1011B000A4020020A6020020A8020020AA0200200B
:1011C000AC020020AE020020B00200202DE9B043A6
:1011D00092B004AF7860FFF747FF01230293032327
:1011E000019307F10C0300930123FA22EC216648D6
:1011F00005F0E4F83B7B1A037B7B1B011343BA7BAE
:101200001209D2B213437B63786BFFF793F94FF067
:1012100000025E4BFFF722FB02460B4614461D46BA
:101220005B4B1B881846FFF785F94FF00002594BBE
:10123000FFF714FB02460B4620462946FFF72CF821
:1012400002460B4614461D46534BB3F90030184670
:10125000FFF770F902460B4620462946FFF7D4F9FE
:1012600002460B46C7E90A23786BFFF763F94FF094
:1012700000024FF08243FFF7F1FA02460B46144694
:101280001D46434B1B881846FFF754F94FF00002E8
:10129000424BFFF7E3FA02460B4620462946FEF78B
:1012A000FBFF02460B4614461D46786BFFF742F9DA
:1012B0004FF000024FF08243FFF7D0FA02460B4690
:1012C00090469946324B1B881846FFF733F94FF08A
:1012D0000002324BFFF7C2FA02460B46404649462F
:1012E000FEF7DAFF02460B4620462946FFF78CF947
:1012F00002460B4614461D46294BB3F900301846EA
:10130000FFF718F902460B4620462946FFF77CF9FD
:1013100002460B46C7E90823D7E90823D7E90A01A3
:10132000FEF7BCFF02460B4610461946FFF744FC89
:101330000346FB61F869FFF7EDF84FF00002194B27
:10134000FFF78CFA02460B46C7E904237B68012BA2
:1013500005D1F869FFF7DEF802460B4609E07B6825
:10136000002B02D1D7E9042303E04FF000024FF035
:10137000000343EC172BB0EE470AF0EE670A38374C
:10138000BD46BDE8B08300BFC00300200000D040D0
:101390009A020020000090409C0200200000C04003
:1013A0009E0200200000B440B0B58EB004AFFFF73D
:1013B0005BFE0120FFF70AFF53EC102B1046194685
:1013C000FFF7FAFB03467B62012302930323019399
:1013D0003B1D00930123F722EC21C74804F0EEFFE8
:1013E0003B791A037B791B011343BA791209D2B2F4
:1013F00013433B62786AFFF78DF84FF000024FF01D
:101400008043FFF72BFA02460B46104619464FF071
:101410000002BA4BFEF740FF02460B46C7E906231F
:10142000D7E90623D7E90601FFF7EEF802460B4697
:1014300014461D46B24BB3F900301846FFF77AF850
:1014400002460B4620462946FFF7DEF802460B46C9
:10145000104619464FF00002AA4BFFF7FFF902466B
:101460000B46C7E90423A84BB3F900301846FFF731
:1014700061F8D7E90623FFF7C7F802460B46104686
:10148000194602460B46FEF709FF02460B46D7E90E
:101490000401FEF703FF02460B46C7E904234FF0A1
:1014A00000029A4BD7E90401FFF7D8F902460B4630
:1014B00014461D46964BB3F900301846FFF73AF82C
:1014C0004FF00002934BFFF79FF802460B46204671
:1014D0002946FEF7E3FE02460B46C7E904238E4B7E
:1014E000B3F900301846FFF725F8D7E90623FFF7D0
:1014F0008BF802460B4610461946D7E90623FFF73C
:1015000083F802460B46104619464FF00002834B03
:10151000FFF7A4F902460B4614461D46804BB3F96B
:1015200000301846FFF706F8D7E90623FFF76CF8F6
:1015300002460B4620462946FEF7B0FE02460B4601
:10154000104619464FF00002744BFFF787F9024628
:101550000B46C7E906234FF000026A4BD7E90601A4
:10156000FFF77CF902460B46104619464FF0000281
:101570006C4BFEF793FE02460B4614461D466A4B23
:101580001B881846FEF7D6FF02460B462046294622
:10159000FFF73AF802460B46C7E906234FF0000270
:1015A0004FF00003D7E90601FFF796FA0346002B38
:1015B00004D04FF000024FF0000390E0386AFEF7CD
:1015C000B9FF02460B464FF000005849FEF764FE93
:1015D00002460B46C7E902234FF00002544BD7E9FD
:1015E0000401FFF73BF902460B46D7E90201FEF77B
:1015F00053FE02460B46104619463DA3D3E900238D
:10160000FFF702F802460B4610461946D7E90623B3
:10161000FFF724F902460B46C7E90223454BB3F90D
:1016200000301846FEF786FFD7E90223FEF7ECFFED
:1016300002460B4610461946D7E90223FEF7E4FF9F
:1016400002460B46104619464FF000023A4BFFF790
:1016500005F902460B46C7E90623384BB3F90030BB
:101660001846FEF767FFD7E90223FEF7CDFF0246D3
:101670000B46104619464FF00002224BFFF7EEF8DA
:1016800002460B46C7E90423D7E90423D7E906013C
:10169000FEF704FE02460B4614461D46284BB3F9DE
:1016A00000301846FEF746FF02460B462046294604
:1016B000FEF7F4FD02460B46104619464FF00002B5
:1016C000204BFFF7CBF802460B46D7E90201FEF7A5
:1016D000E5FD02460B46C7E90223D7E9022343ECA6
:1016E000172BB0EE470AF0EE670A2837BD46B0BDAB
:1016F00000000000006AB840C00300200040EF4036
:10170000AA0200200000E040A802002000001040D3
:10171000A60200200000F040A402002000002041AA
:10172000A20200200000F03FA00200200000304193
:101730000000B040B00200200000E041AE020020F6
:10174000AC0200200000304080B500AF0021F52041
:10175000FFF76EFC2721F420FFF76AFC00BF80BD75
:1017600080B584B000AFFFF71FFE51EC100B4FF0B7
:101770000002254BFFF772F802460B461046194649
:10178000FFF73AFA0346FB600020FFF71FFD53EC1A
:10179000102B10461946FFF72FFA0346BB601B4B70
:1017A000D3ED007AF5EE407AF1EE10FA02D1174A45
:1017B000FB681360154B93ED007AD7ED037AC7EE03
:1017C000276ADFED130AB0EE660A11F0F7F8F0EEC3
:1017D000407AB7EE007A37EEC77AD7ED027ADFEDBE
:1017E0000D6A77EEA67A27EE277ADFED0B6AC7EE51
:1017F000267AC7ED017A7B6807EE903AB0EE670A69
:101800001037BD4680BD00BF00005940B402002023
:10181000B4C9423E33938843F4FDD43B80B400AF57
:1018200000BFBD465DF8047B704780B400AF002365
:101830001846BD465DF8047B7047000080B487B051
:1018400000AF87ED010A97ED017ADFED1A6AC7EE66
:10185000267AFDEEE77A17EE903A7B617B69642287
:1018600002FB03F307EE903AF8EEE77A97ED017A80
:1018700077EE677AC7ED047A97ED047ADFED0E6AAA
:10188000C7EE267AC7ED037A7B6907EE903AF8EE49
:10189000E77A97ED037A77EE277AC7ED027ABB688D
:1018A00007EE903AB0EE670A1C37BD465DF8047B40
:1018B000704700BF0000C8420000704280B586B08B
:1018C00000AF786000237B6100233B617B697A680D
:1018D00013441B78242B03D17B6901337B610CE01B
:1018E000002347E07B697A6813441B781A463B69FA
:1018F00053403B617B6901337B617B697A681344A8
:101900001B78002B08D07B697A6813441B782A2B3C
:1019100002D07B694A2BE5DD7B694A2B01DD002380
:1019200028E07B697A6813441B782A2B19D17B69DC
:1019300001337A6813441B783B737B6902337A68FE
:1019400013441B787B730023BB7307F108033A69C8
:101950000A4918460CF060FF3A7A3B7B9A4208D15C
:1019600001E0002306E07A7A7B7B9A4201D10123D1
:1019700000E0002318461837BD4680BD88340108B2
:1019800080B58EB008AF786000237B610622834962
:1019900078680CF0DCFF0346002B59D1804B07938D
:1019A000804B0693804B0593804B0493804B0393AD
:1019B000804B0293804B0193804B0093804B814A74
:1019C000814978680CF04AFF7D4BD3ED007AB0EE88
:1019D000670AFFF733FFF0EE407A7C4BC3ED007AE5
:1019E000754BD3ED007AB0EE670AFFF727FFF0EEF4
:1019F000407A774BC3ED007A6D4B1B68002B20DDDE
:101A00006B4B1B68022B0ED0022B10DC002B02D07C
:101A1000012B04D00BE06F4B00221A600BE06D4BE2
:101A200003221A6007E06B4B04221A6003E0694B43
:101A300003221A6000BF684B01221A6001237B61F8
:101A40007DE0644B00221A60634B00221A6076E04E
:101A50000622624978680CF07AFF0346002B24D1F5
:101A6000584B0293534B0193534B0093534B544A9F
:101A70005B4978680CF0F2FE514BD3ED007AB0EE82
:101A8000670AFFF7DBFEF0EE407A504BC3ED007AB9
:101A9000494BD3ED007AB0EE670AFFF7CFFEF0EEC8
:101AA000407A4B4BC3ED007A49E006224D497868F5
:101AB0000CF04DFF0346002B41D14B4B05934B4B94
:101AC00004933C4B03933C4B02933C4B01933C4BA4
:101AD0000093474B3B4A474978680CF0BFFE384BB0
:101AE000D3ED007AB0EE670AFFF7A8FEF0EE407A79
:101AF000364BC3ED007A304BD3ED007AB0EE670A77
:101B0000FFF79CFEF0EE407A314BC3ED007A384B84
:101B10001B78412B0CBF01230023DBB27B612E4BD2
:101B20001B687A699A420AD02B4A7B6913607B69E9
:101B3000002B01D0032300E00023264A1360264B2C
:101B40001B68002B25D00622264978680CF0FFFE82
:101B50000346002B1DD1194B1B78532B05D11B4B72
:101B6000D3ED007AF1EE677A02E0184BD3ED007AFC
:101B7000C7ED047A0F4B1B78572B05D1144BD3EDCF
:101B8000007AF1EE677A02E0114BD3ED007AC7EDEF
:101B9000037A00BF1837BD4680BD00BF90340108EE
:101BA0007403002060030020700300205C03002009
:101BB000640300204A0300203C0300204903002066
:101BC0004003002044030020983401085003002003
:101BD0004C0300206C03002068030020C03401087F
:101BE000C8340108E03401085803002054030020E1
:101BF00048030020E834010880B582B000AF786067
:101C0000391D4FF6FF730122034807F07BFA7B680A
:101C100018460837BD4680BDC405002080B483B097
:101C200000AF0346FB80FB88012B0BD1084B1B68E0
:101C30000133074A1360064B1B68032B02D1044B88
:101C400000221A6000BF0C37BD465DF8047B704768
:101C5000544F002090B585B000AF78607B681B685A
:101C6000684A934240F0C9807B681B7F012B40F09B
:101C7000C4800021786806F021FDB860624B1B68C3
:101C8000BA689A4207D9BB689AB25F4B1B689BB28D
:101C9000D31AFB8108E0BB689AB25B4B1B689BB20E
:101CA000D31A9BB2013BFB81FB8940F6B8329342C9
:101CB0000CD9564A564B14460FCB84E80F00554BAF
:101CC00001221A70544B01221A7093E0524B1B7878
:101CD000DBB2013B092B00F2858001A252F823F010
:101CE000091D00081F1D0008351D00084B1D0008B8
:101CF000611D0008771D00088D1D0008A31D000848
:101D0000B91D0008CF1D0008414AFB891380424BD2
:101D10001B78DBB20133DAB23F4B1A706AE03C4AFF
:101D2000FB8953803C4B1B78DBB20133DAB23A4B70
:101D30001A705FE0364AFB899380374B1B78DBB221
:101D40000133DAB2344B1A7054E0314AFB89D38044
:101D5000314B1B78DBB20133DAB22F4B1A7049E0FA
:101D60002B4AFB8913812C4B1B78DBB20133DAB28F
:101D7000294B1A703EE0264AFB895381264B1B787B
:101D8000DBB20133DAB2244B1A7033E0204AFB890C
:101D90009381214B1B78DBB20133DAB21E4B1A70F0
:101DA00028E01B4AFB89D3811B4B1B78DBB2013334
:101DB000DAB2194B1A701DE0154AFB891382164BD3
:101DC0001B78DBB20133DAB2134B1A7012E0104AFF
:101DD000FB895382104B1B78DBB20133DAB20E4B16
:101DE0001A7007E00C4B1B78DBB20133DAB20A4BF6
:101DF0001A7000BF044ABB68136000BF1437BD46A9
:101E000090BD00BF00080040404F00201C4F002044
:101E10000C4F00203C4F00200000002080B582B015
:101E200000AF78607B681B68184A93422AD1184B30
:101E30001B780A2B10D0174B1B785BB2002B0BDBE7
:101E4000144B1B785A1CD1B2124A11701A46104B0F
:101E50001978114B995410E00F48FFF72FFD0346F6
:101E6000002B02D00C48FFF78BFD0A4B00221A70A2
:101E70008022002108480CF062FD01220449074835
:101E800007F0CBF900BF0837BD4680BD0010014008
:101E90003903002038030020B80200207C05002010
:101EA00080B483B000AF786039603B68012B04D107
:101EB0001C4B1B687A685A632EE03B68022B04D1E6
:101EC000184B1B687A689A6326E03B68032B04D1A1
:101ED000144B1B687A68DA631EE03B68042B04D15C
:101EE000114B1B687A685A6316E03B68052B04D1D6
:101EF0000D4B1B687A689A630EE03B68062B04D191
:101F0000094B1B687A68DA6306E03B68072B03D14C
:101F1000054B1B687A681A6400BF0C37BD465DF834
:101F2000047B7047140400205C04002000000000C3
:101F3000B0B58AB000AF87ED050AC7ED040A87ED9A
:101F4000031AC7ED021A87ED012AC7ED002A97EDA3
:101F5000047AD7ED057A67EE277AC7ED077A3868F5
:101F6000FEF7FAFA04460D4697ED057AD7ED017AA9
:101F700037EE277AD7ED037A67EE277A17EE900AC5
:101F8000FEF7EAFA40A3D3E90023FEF73DFB024641
:101F90000B46104619464FF000024FF08043FEF703
:101FA0005DFC02460B4620462946FEF777F90246BD
:101FB0000B4610461946FEF71FFE03467B62D7ED1F
:101FC000097A9FED337AF4EEC77AF1EE10FA02DD6A
:101FD000304B7B620AE0D7ED097A9FED2F7AF4EE61
:101FE000C77AF1EE10FA01D52C4B7B6297ED057A9A
:101FF000D7ED017A37EE677AD7ED027A67EE277A66
:1020000017EE900AFEF7A8FA1FA3D3E90023FEF704
:1020100025FC02460B4610461946FEF7EDFD034629
:10202000BB6197ED077AD7ED097A77EE277A97EDBE
:10203000067A77EE277AC7ED087AD7ED087A9FED12
:10204000147AF4EEC77AF1EE10FA02DD114B3B621E
:102050000AE0D7ED087A9FED107AF4EEC77AF1EE38
:1020600010FA01D50D4B3B620D4A3B6A13600C4AD6
:102070007B6953600A4A7B6A936000BF2837BD467C
:10208000B0BD00BFAFF30080FCA9F1D24D62703F3C
:102090000000C8430000C8430000C8C30000C8C314
:1020A000B44F002080B483B000AF0346FB80FB88B0
:1020B000B3F5FA6F02D94FF4FA63FB80FB88B3F5EE
:1020C0007A7F02D24FF47A73FB80FB88A3F57A7390
:1020D00007EE903AF8EEE77AB2EE047A67EE877A86
:1020E0009FED067AC7EE876AF0EE667AB0EE670A71
:1020F0000C37BD465DF8047B704700BF00007A4492
:1021000080B400AF164B4FF000021A60154B4FF031
:1021100000021A60144B4FF000021A60134B4FF08C
:1021200000021A60124B4FF000021A60114B4FF080
:1021300000021A60104B4FF000021A600F4B4FF074
:1021400000021A600E4B4FF000021A600D4B4FF068
:1021500000021A6000BFBD465DF8047B704700BFF7
:102160009C4F0020A04F0020A44F0020A84F00202B
:10217000AC4F0020B04F0020D04F0020D44F0020A3
:10218000D84F0020DC4F002080B582B000AF02F0B5
:1021900083FF00F003F900F063FC00F0E3FB00F0C4
:1021A000E5F900F079FA00F00FFB00F02FFC00F0E9
:1021B000AFF900F001FC00F059F900F0AFFB00F0BE
:1021C00073FB00237B60594B5B6C584A43F480439C
:1021D0005364564B5B6C03F480437B607B684FF425
:1021E0000051534803F079FE4FF40051504803F07A
:1021F00074FE4FF47A7008F0C1F802F0B3FAFFF7FA
:10220000A3FA4FF400514A4803F067FE4FF400511F
:10221000474803F062FE41F2883008F0AFF84FF40F
:102220000051434803F059FE01F0ACFC4FF400515B
:102230003F4803F052FE41F2883008F09FF84FF417
:1022400000513B4803F049FE282008F097F8002091
:1022500001F0C8FDF0EE407A364BC3ED007A012064
:1022600001F0C0FDF0EE407A334BC3ED007A002060
:1022700001F008FEF0EE407A304BC3ED007A012009
:1022800001F000FEF0EE407A2D4BC3ED007A022003
:1022900001F0F8FDF0EE407A2A4BC3ED007A002100
:1022A000294805F09DFD294805F0F8FA274805F072
:1022B000C7FB07F087FF264808F07BF80346254A4E
:1022C0001360254A0021012008F0F9F80346234A4B
:1022D0001360234A0021234807F0BEFF0346224A29
:1022E0001360224A0021224807F0B6FF0346214A24
:1022F0001360214A0021214807F0AEFF0346204A1F
:102300001360204A0021204807F0A6FF03461F4A19
:1023100013601F4A00211F4807F09EFF03461E4A14
:10232000136007F073FF00BFFDE700BF00380240F5
:1023300000080240584F00205C4F0020604F0020F2
:10234000644F0020684F0020A404002034050020C2
:102350008C360108044F00209C360108084F0020ED
:10236000D8350108612B000854060020FC3501080F
:10237000552C00080409002020360108A92C00086B
:10238000B40B002044360108D12C0008640E002054
:1023900068360108A13A0008B42E002080B594B038
:1023A00000AF07F120033022002118460CF0C7FAD5
:1023B00007F10C0300221A605A609A60DA601A6111
:1023C0000023BB60274B1B6C264A43F080531364E9
:1023D000244B1B6C03F08053BB60BB6800237B6005
:1023E000214B1B68204A43F4404313601E4B1B687B
:1023F00003F440437B607B6802233B620123FB6262
:1024000010233B630223BB630023FB6308233B646D
:1024100054237B640223BB640423FB6407F1200381
:10242000184604F0B1FD0346002B01D001F082FBF9
:102430000F23FB6002233B6100237B614FF4805339
:10244000BB610023FB6107F10C030221184605F074
:1024500013F80346002B01D001F06CFB00BF50378E
:10246000BD4680BD003802400070004080B584B099
:1024700000AF3B4600221A605A609A60DA60214B36
:10248000214A1A601F4B4FF480325A601D4B0022C4
:102490009A601C4B00221A611A4B00221A76194BC3
:1024A000002283F82020174B0022DA62154B174ACE
:1024B0009A62144B0022DA60124B0122DA61114B4E
:1024C000002283F830200F4B01225A610D4802F0A0
:1024D00049FE0346002B01D001F02CFB04233B6096
:1024E00001237B600023BB603B461946054802F090
:1024F000ABFF0346002B01D001F01CFB00BF1037DF
:10250000BD4680BD78030020002001400100000F7F
:1025100080B500AF124B134A1A60114B124A5A6031
:102520000F4B00229A600E4B0022DA600C4B4FF4E6
:1025300080421A610A4B00225A61094B00229A61BB
:10254000074B0022DA61064B00221A62044803F0AE
:10255000F7FC0346002B01D001F0ECFA00BF80BD70
:10256000C003002000540040A086010080B58EB05A
:1025700000AF07F1280300221A605A609A60DA60FF
:1025800007F1200300221A605A603B1D00221A60E6
:102590005A609A60DA601A615A619A613D4B4FF055
:1025A00080421A603B4B53225A603A4B00229A6099
:1025B000384B44F61F62DA60364B00221A61354B05
:1025C00000229A61334805F069F90346002B01D0D7
:1025D00001F0B0FA4FF48053BB6207F128031946AB
:1025E0002C4805F0A3FF0346002B01D001F0A2FA0E
:1025F000284805F087FA0346002B01D001F09AFA2B
:1026000000233B6200237B6207F120031946214827
:1026100006F0A6FC0346002B01D001F08BFA6023E4
:102620007B600023BB600023FB6000237B613B1DBC
:1026300000221946174805F0B7FE0346002B01D0CB
:1026400001F078FA3B1D04221946124805F0ACFE51
:102650000346002B01D001F06DFA3B1D08221946FC
:102660000C4805F0A1FE0346002B01D001F062FAF0
:102670003B1D0C221946074805F096FE0346002B29
:1026800001D001F057FA034802F0E6F900BF3837ED
:10269000BD4680BD1404002080B58EB000AF07F1A8
:1026A000280300221A605A609A60DA6007F120035A
:1026B00000221A605A603B1D00221A605A609A601C
:1026C000DA601A615A619A613D4B3E4A1A603C4B8E
:1026D00053225A603A4B00229A60394B44F61F62EB
:1026E000DA60374B00221A61354B00229A61344878
:1026F00005F0D4F80346002B01D001F01BFA4FF48B
:102700008053BB6207F1280319462D4805F00EFFE0
:102710000346002B01D001F00DFA294805F0F2F92B
:102720000346002B01D001F005FA00233B62002391
:102730007B6207F120031946214806F011FC03468D
:10274000002B01D001F0F6F960237B600023BB6011
:102750000023FB6000237B613B1D002219461848C3
:1027600005F022FE0346002B01D001F0E3F93B1DEA
:1027700004221946124805F017FE0346002B01D02B
:1027800001F0D8F93B1D082219460D4805F00CFE52
:102790000346002B01D001F0CDF93B1D0C22194658
:1027A000074805F001FE0346002B01D001F0C2F9F5
:1027B000034802F051F900BF3837BD4680BD00BF65
:1027C0005C0400200004004080B58AB000AF07F12F
:1027D000180300221A605A609A60DA6007F1100349
:1027E00000221A605A603B4600221A605A609A60C2
:1027F000DA602B4B2B4A1A60294B53225A60284B24
:1028000000229A60264B4FF6FF72DA60244B0022BA
:102810001A61234B00229A61214805F03FF80346D4
:10282000002B01D001F086F94FF48053BB6107F112
:10283000180319461A4805F079FE0346002B01D00B
:1028400001F078F9164805F0C9FB0346002B01D0CA
:1028500001F070F900233B6100237B6107F1100355
:1028600019460F4806F07CFB0346002B01D001F00F
:1028700061F900233B6001237B600023BB600A23D6
:10288000FB603B4600221946054805F0F0FC034674
:10289000002B01D001F04EF900BF2837BD4680BDA6
:1028A000A40400200008004080B584B000AF3B467F
:1028B00000221A605A609A60DA60164B164A1A6053
:1028C000144B53225A60134B00229A60114B4FF65F
:1028D000FF72DA600F4B00221A610E4B00229A61E0
:1028E0000C4804F0DBFF0346002B01D001F022F975
:1028F0004FF480533B603B461946064805F016FEF0
:102900000346002B01D001F015F900BF1037BD467A
:1029100080BD00BFEC0400200040014080B500AF46
:102920000E4B0F4A1A600D4B53225A600B4B00227C
:102930009A600A4B40F6C312DA60084B00221A6113
:10294000064B00229A61054804F0A8FF0346002BBD
:1029500001D001F0EFF800BF80BD00BF34050020BA
:102960000044014080B500AF114B124A1A60104B71
:102970004FF416525A600E4B00229A600C4B002204
:10298000DA600B4B00221A61094B0C225A61084B8A
:1029900000229A61064B0022DA61054806F062FBCC
:1029A0000346002B01D001F0C5F800BF80BD00BF79
:1029B0007C0500200010014080B500AF114B124A89
:1029C0001A60104B4FF416525A600E4B00229A6058
:1029D0000C4B0022DA600B4B00221A61094B0C22CF
:1029E0005A61084B00229A61064B0022DA610548C1
:1029F00006F038FB0346002B01D001F09BF800BF26
:102A000080BD00BFC40500200044004080B500AF79
:102A1000114B124A1A60104B4FF4E1325A600E4BC0
:102A200000229A600C4B0022DA600B4B00221A61E4
:102A3000094B0C225A61084B00229A61064B002276
:102A4000DA61054806F00EFB0346002B01D001F0C9
:102A500071F800BF80BD00BF0C06002000140140CB
:102A600080B588B000AF07F10C0300221A605A60ED
:102A70009A60DA601A610023BB60354B1B6B344AE5
:102A800043F004031363324B1B6B03F00403BB607E
:102A9000BB6800237B602E4B1B6B2D4A43F0010368
:102AA00013632B4B1B6B03F001037B607B680023DC
:102AB0003B60274B1B6B264A43F002031363244BF6
:102AC0001B6B03F002033B603B6800224FF4005194
:102AD000204803F0E9F900224FF4E0411E4803F0DA
:102AE000E3F94FF40053FB6001233B6100237B615A
:102AF0000023BB6107F10C031946164803F050F898
:102B00000123FB604FF404133B6101237B6107F158
:102B10000C031946114803F043F84FF4E043FB60FF
:102B200001233B6100237B610023BB6107F10C03A0
:102B30001946094803F034F800220521062002F066
:102B400073FF062002F08CFF00BF2037BD4680BD1A
:102B50000038024000080240000402400000024029
:102B600080B584B000AF78600023FB600023BB60B9
:102B7000334B1B8940F26C72934229D9FB68012BBD
:102B800026D00023BB602F4B01221A602E4B00225F
:102B90001A6000212D4805F00FF804212B4805F09C
:102BA0000BF80821294805F007F80021284805F00E
:102BB00003F80421264804F0FFFF0821244804F00C
:102BC000FBFF0C21224804F0F7FF0123FB6032E0F9
:102BD0001B4B1B8940F26B7293422BD8BB68012BB5
:102BE00028D00023FB60174B00221A60164B0122ED
:102BF0001A60FFF785FA0021144805F08DF80421CA
:102C0000124805F089F80821104805F085F80021E0
:102C10000F4805F081F804210D4805F07DF80821E2
:102C20000B4805F079F80C21094805F075F80123E7
:102C3000BB6000E000BF322007F0A0FB98E700BFB8
:102C40002C4F00204C4F0020484F0020140400203F
:102C50005C04002080B584B000AF7860104B1B6826
:102C6000002B03D14FF47A73FB600FE00C4B1B6811
:102C7000012B03D14FF4A773FB6007E0084B1B68DF
:102C8000022B02D16423FB6000E000BF4FF400512F
:102C9000044803F022F9F86807F070FBDEE700BF94
:102CA000504F00200008024080B582B000AF78602D
:102CB000044B1B68044A13600A2007F05FFB00BF47
:102CC000F6E700BF544F0020504F002000000000E6
:102CD00090B52DED028B87B000AF786040F21A43BB
:102CE0003B6100237B61A84B1B68002BFBD1A74AEB
:102CF000A74B14460FCB84E80F00A64B00221A7096
:102D0000A54B1B68182B33DCA04B1B88A3F2DC53AC
:102D10009BB21AB2A14B1A809C4B5B88A3F2DC5386
:102D20009BB21AB29E4B1A809C4BB3F90030642BB5
:102D300002DD9A4B64221A80984BB3F9003013F1EC
:102D4000640F03DA954B4FF69C721A80944BB3F9DB
:102D50000030642B02DD924B64221A80904BB3F951
:102D6000003013F1640F03DA8D4B4FF69C721A801A
:102D7000894B1B680133884A1360844B1A88874B40
:102D8000B3F900309BB2D31A9AB2804B1A807F4BB2
:102D90005A88834BB3F900309BB2D31A9AB27B4B5B
:102DA0005A807A4B1B88B3F5BB6F08D3774B1B88CF
:102DB000B3F5BC6F03D8754B40F2DC521A80734BED
:102DC0005B88B3F5BB6F08D3704B5B88B3F5BC6F02
:102DD00003D86E4B40F2DC525A806C4B1B88B3F523
:102DE0007A7F03D2694B4FF47A721A80674B1B8843
:102DF000B3F5FA6F03D9654B4FF4FA621A80634B4F
:102E00005B88B3F57A7F03D2604B4FF47A725A80B5
:102E10005E4B5B88B3F5FA6F03D95C4B4FF4FA62F3
:102E20005A80604B1B68012B40F017865E4B1B6875
:102E3000002B40F012865D4B1B684FF0FF311846A7
:102E400007F0C6FB0346002B40F00C864F4BDB8996
:102E500040F26C72934240F267837B6983F0010316
:102E60007B61534B00225A62524804F067FD474B86
:102E70001B88A3F2DC531846FDF75CFB3EA3D3E9A5
:102E80000023FDF7C1FB02460B4610461946FDF72D
:102E9000B3FE0346484A13603C4B5B88A3F2DC5305
:102EA0001846FDF747FB34A3D3E90023FDF7ACFB3D
:102EB00002460B4610461946FDF79EFE03463F4A62
:102EC00013603D4BD3ED007AB3EE047AF4EEC77A8B
:102ED000F1EE10FA02DD384B394A1A60364BD3ED69
:102EE000007ABBEE047AF4EEC77AF1EE10FA02D55E
:102EF000314B344A1A60314BD3ED007AB3EE047A89
:102F0000F4EEC77AF1EE10FA02DD2C4B2C4A1A606F
:102F10002A4BD3ED007ABBEE047AF4EEC77AF1EED9
:102F200010FA02D5254B274A1A60184B9B8807EEEA
:102F3000903AF8EE677A244BC3ED007A134BDB88A6
:102F4000A3F2DC531846FDF7F5FA0DA3D3E90023ED
:102F5000FDF75AFB02460B4610461946FDF74CFE9C
:102F600003461A4A1360194BD3ED007AF1EE677AE3
:102F7000164BC3ED007A2BE09A9999999999B93F2C
:102F8000333333333333C33F504F00202C4F0020B3
:102F90001C4F00203C4F0020005000200450002017
:102FA000065000204C4F0020484F0020084F0020C2
:102FB00000400140EC040020C04F0020C44F00201E
:102FC0000000A0410000A0C1904F00207C4F0020D5
:102FD000BC49BD4801F01AFA7B69012B06D1FEF706
:102FE000BFFBF0EE407AB94BC3ED007A7B69002B52
:102FF00006D101F021FBF0EE407AB54BC3ED007A2B
:10300000B44B93ED007AB04BD3ED007A77EE677A4C
:10301000B14BC3ED007AB14B93ED007AA94BD3EDE0
:10302000007A77EE677AAE4BC3ED007AAA4BD3ED08
:10303000007AAC4B93ED007AAB4BD3ED006AAB4B0F
:1030400093ED006AAA4BD3ED005AAA4B93ED005AB8
:10305000F0EE452AB0EE652AF0EE461AB0EE661A9A
:10306000F0EE470AB0EE670AFEF762FFA24B1B685C
:10307000A24A1360A04B5B689D4A13609E4B9B68FD
:103080009C4A1360964BD3ED007A9D4B93ED007AEA
:103090009C4BD3ED006A9C4B93ED006A9B4BD3EDA8
:1030A000005A9B4B93ED005AF0EE452AB0EE652A8C
:1030B000F0EE461AB0EE661AF0EE470AB0EE670A76
:1030C000FEF736FF8C4B1B68924A13608A4B5B6895
:1030D0008E4A1360884B9B688D4A1360874B93ED33
:1030E000008A002000F03CFFB0EE407A8A4BD3ED1E
:1030F000007A77EE677A78EE677A884BC3ED007ACC
:10310000844B93ED008A012000F02AFFB0EE407A54
:10311000834BD3ED007A77EE677A78EE677A814B4E
:10312000C3ED007A804B93ED008A022000F018FF77
:10313000B0EE407A7D4BD3ED007A77EE677A78EE89
:10314000677A7B4BC3ED007A744BD3ED007A794BF1
:1031500093ED007A784BD3ED006A784B93ED006ADB
:10316000774BD3ED005A774B93ED005AF0EE452A9A
:10317000B0EE652AF0EE461AB0EE661AF0EE470A97
:10318000B0EE670AFEF7D4FE5B4B1B686E4A136015
:10319000594B5B686A4A1360574B9B68694A1360D6
:1031A000604BD3ED007A694B93ED007A684BD3ED19
:1031B000006A684B93ED006A674BD3ED005A674B8A
:1031C00093ED005AF0EE452AB0EE652AF0EE461A6D
:1031D000B0EE661AF0EE470AB0EE670AFEF7A8FEF8
:1031E000454B1B685E4A1360434B5B685A4A136049
:1031F000414B9B68594A13604D4BD3ED007A594BB4
:1032000093ED007A584BD3ED006A584B93ED006A6A
:10321000574BD3ED005A574B93ED005AF0EE452A29
:10322000B0EE652AF0EE461AB0EE661AF0EE470AE6
:10323000B0EE670AFEF77CFE2F4B1B684E4A136008
:103240002D4B5B684A4A13602B4B9B68494A1360BD
:103250004A4B93ED007A3C4BD3ED007A37EE677A18
:103260003F4BD3ED007A37EE677A434BD3ED007ACC
:1032700077EE677A9FED427A67EE877AFCEEE77A1F
:1032800017EE902A3F4B1A603C4B93ED007A2E4B81
:10329000D3ED007A37EE677A314BD3ED007A37EE13
:1032A000277A354BD3ED007A77EE277A9FED347A83
:1032B00067EE877AFCEEE77A17EE902A324B1A60B7
:1032C00064E000BF704F00206C4F0020F84F0020DA
:1032D000FC4F0020C04F0020C84F0020C44F0020EA
:1032E000CC4F0020240000202C00002034000020BF
:1032F000D04F0020D84F0020B44F0020744F002042
:10330000280000203000002038000020D44F00208A
:10331000DC4F0020784F0020604F0020804F0020BD
:10332000644F0020844F00207C4F0020684F002015
:10333000884F002004000020100000201C00002006
:103340009C4F0020A84F00208C4F00200800002038
:103350001400002020000020A04F0020AC4F0020CF
:10336000944F00200C00002018000020F04F002097
:10337000A44F0020B04F0020984F0020904F002015
:103380006F12833FE04F0020E44F0020594B93ED34
:10339000007A594BD3ED007A37EE277A574BD3EDAD
:1033A000007A37EE277A564BD3ED007A77EE677ABC
:1033B0009FED547A67EE877AFCEEE77A17EE902A53
:1033C000514B1A604B4B93ED007A4B4BD3ED007A87
:1033D00037EE277A494BD3ED007A37EE677A484BC0
:1033E000D3ED007A77EE277A9FED467A67EE877AFB
:1033F000FCEEE77A17EE902A444B1A60444B1A68A9
:103400003B699A4202D23B69414A1360414B1A68B8
:103410003B699A4202D23B693E4A13603A4B1A68B2
:103420003B699A4202D23B69374A1360374B1A68AC
:103430003B699A4202D23B69344A1360344B1B68A1
:10344000B3F5FA6F03D9324B40F2CF721A60314BA9
:103450001B68B3F5FA6F03D92E4B40F2CF721A6096
:10346000294B1B68B3F5FA6F03D9274B40F2CF7293
:103470001A60264B1B68B3F5FA6F03D9234B40F251
:10348000CF721A604FF47A73BB60234B9B8840F273
:103490004B4293420DD8BB681D4A1360BB681D4A5E
:1034A0001360BB68184A1360BB68184A1360FEF7C4
:1034B00027FE174B1B6805211846FEF7F1FC134B3E
:1034C0001B6807211846FEF7EBFC0F4B1B68042115
:1034D0001846FEF7E5FC0F4B1B6806211846FEF761
:1034E000DFFC0E4804F084FA0D4B5B6A1A460D4B64
:1034F0001A60B7E2904F00208C4F0020944F0020BC
:10350000984F00206F12833FE84F0020EC4F0020BF
:10351000E04F0020E44F00202C4F0020EC0400205E
:1035200000400140444F0020BF4BDB8940F2135262
:10353000934200F297827B6983F001037B61BB4B6E
:1035400000225A62BA4804F0F9F9B74B1B88A3F27B
:10355000DC531846FCF7EEFFB1A3D3E90023FDF7D7
:1035600053F802460B4610461946FDF745FB034645
:10357000B04A1360AC4B5B88A3F2DC531846FCF7EF
:10358000D9FFA7A3D3E90023FDF73EF802460B4677
:1035900010461946FDF730FB0346A74A1360A24BBD
:1035A0009B8807EE903AF8EE677AA44BC3ED007A59
:1035B0009D4BDB88A3F2DC531846FCF7BBFF98A3B6
:1035C000D3E90023FDF720F802460B4610461946C2
:1035D000FDF712FB03469A4A1360994BD3ED007A2C
:1035E000F1EE677A964BC3ED007A9649964800F063
:1035F0000DFF7B69012B06D1FEF7B2F8F0EE407AA1
:10360000924BC3ED007A7B69002B06D101F014F8D0
:10361000F0EE407A8E4BC3ED007A864B93ED008A34
:10362000002000F09DFCB0EE407A8A4BD3ED007A8A
:1036300077EE677A78EE677A874BC3ED007A7E4B38
:1036400093ED008A012000F08BFCB0EE407A834BB2
:10365000D3ED007A77EE677A78EE677A804BC3ED28
:10366000007A774B93ED008A022000F079FCB0EEEF
:10367000407A7C4BD3ED007A77EE677A78EE677A02
:10368000794BC3ED007A684B5B891846FEF70AFD5B
:10369000F0EE407A754BC3ED007A634B5B891846B8
:1036A000FEF700FDF0EE407A714BC3ED007A5E4B01
:1036B0009B891846FEF7F6FCF0EE407A6D4BC3EDA1
:1036C000007A594B9B891846FEF7ECFCF0EE407AE5
:1036D000694BC3ED007A604BD3ED007A634B93EDF9
:1036E000007A644BD3ED006A644B93ED006A644B3F
:1036F000D3ED005A634B93ED005AF0EE452AB0EE3D
:10370000652AF0EE461AB0EE661AF0EE470AB0EE01
:10371000670AFEF70DFC5C4B1B685C4A13605A4B52
:103720005B68574A1360584B9B68564A13604C4B72
:10373000D3ED007A4E4B93ED007A4F4BD3ED006AF8
:10374000534B93ED006A534BD3ED005A524B93ED1C
:10375000005AF0EE452AB0EE652AF0EE461AB0EEB9
:10376000661AF0EE470AB0EE670AFEF7E1FB464B39
:103770001B684A4A1360444B5B68464A1360424BDD
:103780009B68454A1360384BD3ED007A444B93ED68
:10379000007A444BD3ED006A434B93ED006A434BF0
:1037A000D3ED005A424B93ED005AF0EE452AB0EEAD
:1037B000652AF0EE461AB0EE661AF0EE470AB0EE51
:1037C000670AFEF7B5FB304B1B683A4A13602E4B75
:1037D0005B68364A13602C4B9B68354A1360174B65
:1037E00093ED007A294BD3ED007A37EE677A2B4BB5
:1037F000D3ED007A37EE677A2E4BD3ED007A77EE71
:10380000677A9FED2D7A67EE877AFCEEE77A17EEFE
:10381000902A2A4B1A60094B93ED007A50E000BFC2
:10382000333333333333C33F2C4F00200040014048
:10383000EC040020744F0020784F0020904F0020AF
:103840007C4F0020704F00206C4F0020F84F00206C
:10385000FC4F0020604F0020804F0020644F00206C
:10386000844F0020684F0020884F00203C0000203B
:1038700040000020480000204C00002054000020A0
:103880009C4F0020A84F0020B44F00208C4F0020F8
:1038900058000020A04F0020AC4F0020944F002083
:1038A0004400002050000020F44F0020A44F0020CE
:1038B000B04F0020984F00206F12833FE04F002050
:1038C0006A4BD3ED007A37EE677A694BD3ED007A15
:1038D00037EE277A674BD3ED007A77EE277A9FEDA4
:1038E000667A67EE877AFCEEE77A17EE902A634BEA
:1038F0001A60634B93ED007A5C4BD3ED007A37EEA0
:10390000277A5B4BD3ED007A37EE277A594BD3ED0C
:10391000007A77EE677A9FED587A67EE877AFCEE49
:10392000E77A17EE902A574B1A60554B93ED007AC1
:103930004E4BD3ED007A37EE277A4D4BD3ED007A1C
:1039400037EE677A4B4BD3ED007A77EE277A9FED0F
:103950004A7A67EE877AFCEEE77A17EE902A4A4BAE
:103960001A604A4B1A683B699A4202D23B69474A3D
:103970001360424B1A683B699A4202D23B693F4A44
:103980001360404B1A683B699A4202D23B693D4A38
:1039900013603D4B1A683B699A4202D23B693A4A2E
:1039A00013603A4B1B68B3F5FA6F03D9374B40F2FB
:1039B000CF721A60314B1B68B3F5FA6F03D92F4BE6
:1039C00040F2CF721A602F4B1B68B3F5FA6F03D920
:1039D0002C4B40F2CF721A602B4B1B68B3F5FA6F79
:1039E00003D9294B40F2CF721A604FF47A73FB600F
:1039F000274B9B8840F24B4293420DD8FB68234AE9
:103A00001360FB681D4A1360FB681E4A1360FB6865
:103A10001D4A1360FEF774FB1C4B1B6805211846FA
:103A2000FEF73EFA184B1B6807211846FEF738FAD6
:103A3000144B1B6804211846FEF732FA0F4B1B6823
:103A400006211846FEF72CFA124803F0D1FF124B5C
:103A50005B6A1A46114B1A6004E0012006F08EFCE6
:103A6000FFF741B900BFFFF73EB900BF8C4F002000
:103A7000944F0020984F00206F12833FE44F0020A6
:103A8000904F0020E84F0020EC4F0020E04F002036
:103A90002C4F0020EC04002000400140444F002047
:103AA000B0B586B002AF78600023FB60FB6883F09E
:103AB0000103FB600C4B1B681846FCF74DFD0446E8
:103AC0000D460A4B1B681846FCF746FD02460B469E
:103AD000CDE9002322462B4605480AF08BFE1E2026
:103AE00006F04CFC00BFE1E73C000020480000204D
:103AF0006835010880B582B000AF78607B681B68CC
:103B0000094A934201D101F0E9FA7B681B68074A30
:103B1000934204D1064B1B68184606F0ABFD00BF6C
:103B20000837BD4680BD00BF004801400044014049
:103B3000084F002080B400AF72B600BF00BFFDE7A1
:103B400080B483B000AF78607B684FF00002DA6029
:103B50007B684FF000021A617B684FF07E525A6119
:103B60007B684FF000029A617B684FF00002DA61D7
:103B70007B684FF07E521A6200BF0C37BD465DF87D
:103B8000047B704780B586B004AF0023FB713223FD
:103B9000029301230193FB1D009301236B22D0218B
:103BA000224802F011FB0023FB7132230293012310
:103BB0000193FB1D009301231B22D0211B4802F01F
:103BC00003FB0023FB713223029301230193FB1DAE
:103BD000009301231C22D021144802F0F5FA05239A
:103BE000FB716423029301230193FB1D00930123C6
:103BF0001A22D0210D4802F0E7FA0323FB71642357
:103C0000029301230193FB1D009301231922D0216C
:103C1000064802F0D9FA0648FFF792FF0548FFF779
:103C20008FFF00BF0837BD4680BD00BFC003002026
:103C30005C0000208000002080B52DED028B8EB04E
:103C400004AF7860322302930623019307F10C033B
:103C5000009301233B22D0215D4802F0AFFB3B7B68
:103C60001BB21B021AB27B7B1BB21343FB84BB7BD0
:103C70001BB21B021AB2FB7B1BB21343BB843B7CFF
:103C80001BB21B021AB27B7C1BB213437B84B7F9B5
:103C9000263007EE903AB8EEE77ADFED4E6AC7EECF
:103CA000267AC7ED077AB7F9243007EE903AB8EED6
:103CB000E77ADFED486AC7EE267AC7ED067AB7F9EC
:103CC000223007EE903AB8EEE77ADFED426AC7EEAF
:103CD000267AC7ED057AD7ED077A27EEA77AD7EDD2
:103CE000057A67EEA77A77EE277AB0EE670A0EF0CC
:103CF000BDFEF0EE407AF0EE670A97ED060A0EF090
:103D00005BFEF0EE407A9FED347A67EE877A17EE2D
:103D1000900AFCF721FC2CA3D3E90023FCF79EFDBD
:103D200002460B4610461946FCF766FF03462B4A2F
:103D30001360D7ED077AB1EE678AD7ED067A27EEE2
:103D4000A77AD7ED057A67EEA77A77EE277AB0EEF5
:103D5000670A0EF08BFEF0EE407AF0EE670AB0EEE6
:103D6000480A0EF029FEF0EE407A9FED1B7A67EECE
:103D7000877A17EE900AFCF7EFFB13A3D3E9002331
:103D8000FCF76CFD02460B4610461946FCF734FF63
:103D90000346134A13607B68002B02D10F4B1B684C
:103DA00007E07B68012B02D10D4B1B6801E04FF04F
:103DB000000307EE903AB0EE670A2837BD46BDEC27
:103DC000028B80BDAFF30080182D4454FB210940C5
:103DD000C00300200000804600003443085000204B
:103DE0000C50002080B588B000AF78604FF0000321
:103DF000FB614FF00003BB6100237B6118E00020F2
:103E0000FFF71AFFB0EE407AD7ED077A77EE877AA0
:103E1000C7ED077A0120FFF70FFFB0EE407AD7ED2C
:103E2000067A77EE877AC7ED067A7B6901337B6184
:103E30007B6940F2DB529342E1DD97ED077ADFEDDB
:103E4000106AC7EE267AC7ED047A97ED067ADFEDA1
:103E50000C6AC7EE267AC7ED037A7B68002B01D186
:103E60003B6906E07B68012B01D1FB6801E04FF064
:103E7000000307EE903AB0EE670A2037BD4680BDDA
:103E80000080BB4480B58AB000AF78604FF000037B
:103E90007B624FF000033B624FF00003FB610023A5
:103EA000BB6126E0002000F05BF8B0EE407AD7ED71
:103EB000097A77EE877AC7ED097A012000F050F889
:103EC000B0EE407AD7ED087A77EE877AC7ED087AB8
:103ED000022000F045F8B0EE407AD7ED077A77EE91
:103EE000877AC7ED077A012001F018F9BB69013321
:103EF000BB61BB6940F2DB529342D3DD97ED097A97
:103F0000DFED166AC7EE267AC7ED057A97ED087AD7
:103F1000DFED126AC7EE267AC7ED047A97ED077ACD
:103F2000DFED0E6AC7EE267AC7ED037A7B68002BB9
:103F300001D17B690BE07B68012B01D13B6906E075
:103F40007B68022B01D1FB6801E04FF0000307EE14
:103F5000903AB0EE670A2837BD4680BD0080BB446A
:103F600080B58EB004AF78603223029306230193AC
:103F700007F10C03009301234322D0212B4802F0C8
:103F80001DFA3B7B1BB21B021AB27B7B1BB2134395
:103F9000FB84BB7B1BB21B021AB2FB7B1BB213431D
:103FA000BB843B7C1BB21B021AB27B7C1BB213434B
:103FB0007B84B7F9263007EE903AB8EEE77ADFED6A
:103FC0001C6AC7EE267AC7ED077AB7F9243007EEE8
:103FD000903AB8EEE77ADFED166AC7EE267AC7EDBB
:103FE000067AB7F9223007EE903AB8EEE77ADFEDBD
:103FF000106AC7EE267AC7ED057A7B68002B01D1DF
:10400000FB690BE07B68012B01D1BB6906E07B6893
:10401000022B01D17B6901E04FF0000307EE903ADB
:10402000B0EE670A2837BD4680BD00BFC003002040
:10403000000003432DE9B04396B000AFF86187ED6F
:10404000040B87ED021B87ED002BFB691B691846EB
:10405000FCF782FA02460B46D7E90201FCF71CF98D
:1040600002460B46C7E91423FB69DB681846FCF7D8
:1040700073FA04460D46D7E91423D7E90001FCF78B
:10408000C3FA02460B4620462946FCF707F90246CA
:104090000B4610461946FCF7AFFD0246FB69DA6095
:1040A000FB695B691846FCF757FA04460D46FB6945
:1040B0001B6A1846FCF750FAD7E90023FCF7A4FA6C
:1040C00002460B4690469946FB699B691846FCF7E9
:1040D00043FA02460B4640464946FCF7DDF80246E5
:1040E0000B4690469946FB69DB691846FCF734FAA3
:1040F00002460B4640464946FCF7CEF802460B46C0
:1041000090469946FB691B681846FCF725FA02465B
:104110000B4640464946FCF7C1F802460B4610469E
:104120001946D7E90023FCF76FFA02460B462046F2
:104130002946FCF7B3F802460B4610461946FCF731
:104140005BFD0246FB695A61FB699B691846FCF7F7
:1041500003FA04460D46FB691B6A1846FCF7FCF996
:10416000D7E90023FCF750FA02460B4620462946C1
:10417000FCF792F802460B4610461946FCF73CFD48
:104180000246FB699A61FB69DB691846FCF7E4F9B2
:1041900004460D46FB691B6A1846FCF7DDF9D7E9B2
:1041A0000023FCF731FA02460B4620462946FCF76D
:1041B00073F802460B4610461946FCF71DFD0246F1
:1041C000FB69DA61FB691B6A1846FCF7C5F904460E
:1041D0000D46FB695B681846FCF7BEF9D7E900237A
:1041E000FCF712FA02460B4620462946FCF756F821
:1041F00002460B4610461946FCF7FEFC0246FB69D8
:104200001A62FB69DB681846FCF7A6F902460B4602
:10421000D7E90401FCF740F802460B46C7E9122330
:10422000FB6993ED057AFB69D3ED027A77EE277A85
:1042300017EE900AFCF790F902460B46C7E91023E7
:10424000FB695B691846FCF787F9D7E91023FCF78F
:1042500005FB02460B46C7E90823FB69DB691846E4
:10426000FCF77AF9D7E91023FCF7F8FA02460B4677
:10427000C7E90A23FB69DB681846FCF76DF90446B9
:104280000D46D7E90801D7E91223FCF7BDF902462C
:104290000B4620462946FCF701F802460B4610461D
:1042A0001946FCF7A9FC0246FB69DA60FB691B6949
:1042B0001846FCF751F904460D46D7E90A01D7E93B
:1042C0001223FCF7A1F902460B4620462946FBF7CC
:1042D000E5FF02460B4610461946FCF78DFC0246E8
:1042E000FB691A61FB695B691846FCF735F9024600
:1042F0000B46C7E90E23FB699B691846FCF72CF9AE
:1043000002460B46C7E90C23FB695B691846FCF7BC
:1043100023F904460D46D7E90801D7E90E23FCF737
:1043200073F902460B4620462946FBF7B5FF0246C5
:104330000B4610461946FCF75FFC0246FB695A61C2
:10434000FB699B691846FCF707F904460D46D7E957
:104350000801D7E90C23FCF757F902460B46204623
:104360002946FBF799FF02460B4610461946FCF713
:1043700043FC0246FB699A61FB69DB691846FCF75E
:10438000EBF804460D46D7E90A01D7E90E23FCF7FE
:104390003BF902460B4620462946FBF77DFF0246C5
:1043A0000B4610461946FCF727FC0246FB69DA610A
:1043B000FB691B6A1846FCF7CFF804460D46D7E99F
:1043C0000A01D7E90C23FCF71FF902460B462046E9
:1043D0002946FBF761FF02460B4610461946FCF7DB
:1043E0000BFC0246FB691A62FB69DB681846FCF7A6
:1043F000B3F802460B4643EC172BB0EE470AF0EE3B
:10440000670A5837BD46BDE8B08300002DE9B043C8
:1044100088B000AF7860396000F074FEF861444BFA
:104420001B68FA69D31A07EE903AB8EE677ADFEDA7
:10443000416AC7EE267AC7ED067A3D4AFB691360EA
:104440000020FFF7F9FBB0EE407A3B4BD3ED007A4A
:1044500077EE677AC7ED057A0120FFF7EDFBB0EE46
:10446000407A364BD3ED007A77EE677AC7ED047A5F
:104470000020FFF775FDB0EE407A314BD3ED007AA6
:1044800077EE677AC7ED037A0120FFF769FDB0EE9A
:10449000407A2C4BD3ED007A77EE677AC7ED027A3B
:1044A0007869FCF759F804460D46F868FCF754F8AB
:1044B00080468946B869FCF74FF802460B4643EC44
:1044C000122B49EC118B45EC104B1F48FFF7B2FD46
:1044D00053EC102B10461946FCF78EFB02467B6806
:1044E0001A603869FCF738F804460D46B868FCF7DE
:1044F00033F880468946B869FCF72EF802460B4629
:1045000043EC122B49EC118B45EC104B0F48FFF795
:1045100091FD53EC102B10461946FCF76DFB02463B
:104520003B681A6000BF2037BD46BDE8B08300BFBE
:104530001050002000007A44584F00205C4F0020AB
:10454000604F0020644F00205C00002080000020AD
:1045500080B586B004AF03460A46FB711346BB71B3
:10456000FB799AB23223029301230193BB1D00937E
:1045700001235821034801F027FE00BF0837BD463C
:1045800080BD00BFC003002080B588B004AF0346E3
:10459000FB710023FB73FB799AB232230293012350
:1045A000019307F10F03009301235821034801F001
:1045B00005FFFB7B18461037BD4680BDC0030020B9
:1045C00080B485B000AF87ED010AC7ED000A97ED12
:1045D000017AD7ED007A77EE677AC7ED037AD7EDE7
:1045E000037AF5EEC07AF1EE10FA08D5D7ED037A2A
:1045F0009FED107A77EE877AC7ED037A10E0D7ED5A
:10460000037A9FED0C7AF4EEC77AF1EE10FA07DB2D
:10461000D7ED037A9FED077A77EEC77AC7ED037A75
:10462000FB6807EE903AB0EE670A1437BD465DF8B6
:10463000047B70470000B44380B586B000AF022011
:10464000FFF7A2FF03463B700120FFF79DFF0346E3
:104650007B700420FFF798FF0346BB700320FFF731
:1046600093FF0346FB700620FFF78EFF03463B7166
:104670000520FFF789FF03467B713B781BB21B02C5
:104680001AB27B781BB213431BB207EE903AF8EED6
:10469000E77AC7ED047ABB781BB21B021AB2FB782B
:1046A0001BB213431BB207EE903AF8EEE77AC7ED60
:1046B000037A3B791BB21B021AB27B791BB21343FC
:1046C0001BB207EE903AF8EEE77AC7ED027AD7ED23
:1046D000037AF1EE677AD7ED040AB0EE670A0EF0BE
:1046E0006BF9F0EE407A9FED1A7A67EE877AC7EDA4
:1046F000057AD7ED057AF5EEC07AF1EE10FA07D516
:10470000D7ED057A9FED137A77EE877AC7ED057AB4
:10471000114B1B68002B05D1104A7B6913600E4BAF
:1047200001221A600D4BD3ED007AF0EE670A97ED87
:10473000050AFFF745FF87ED050AD7ED057A9FEDDE
:10474000087A67EE877AB0EE670A1837BD4680BDF3
:10475000ED2E65420000B443145000201850002094
:104760002EFA8E3C80B500AF08210B20FFF7F0FE3B
:10477000CD210A20FFF7ECFE00BF80BD80B582B0DE
:1047800000AF00237B60124B5B6C114A43F4804303
:1047900053640F4B5B6C03F480437B607B680023A6
:1047A0003B600B4B1B6C0A4A43F080531364084B6D
:1047B0001B6C03F080533B603B6800220F216FF0BD
:1047C000010001F031F900BF0837BD4680BD00BFD0
:1047D0000038024080B58AB000AF786007F114035A
:1047E00000221A605A609A60DA601A617B681B685E
:1047F0001B4A93422FD100233B611A4B5B6C194A31
:1048000043F480735364174B5B6C03F480733B6118
:104810003B690023FB60134B1B6B124A43F00103FF
:104820001363104B1B6B03F00103FB60FB68102349
:104830007B610323BB610023FB6107F1140319466D
:10484000094801F0ADF900220521122001F0ECF831
:10485000122001F005F900BF2837BD4680BD00BF1A
:1048600000200140003802400000024080B58AB0BC
:1048700000AF786007F1140300221A605A609A6052
:10488000DA601A617B681B68194A93422CD10023B5
:104890003B61184B1B6B174A43F002031363154B24
:1048A0001B6B03F002033B613B694FF440737B6178
:1048B0001223BB610123FB6103233B6204237B6260
:1048C00007F1140319460C4801F06AF90023FB6054
:1048D000084B1B6C074A43F400131364054B1B6C15
:1048E00003F40013FB60FB6800BF2837BD4680BDA2
:1048F00000540040003802400004024080B58EB0F1
:1049000000AF786007F1240300221A605A609A60B1
:10491000DA601A617B681B68B3F1804F0ED1002307
:104920003B62474B1B6C464A43F001031364444B04
:104930001B6C03F001033B623B6A7CE07B681B68F5
:10494000404A93420ED10023FB613D4B1B6C3C4A15
:1049500043F0020313643A4B1B6C03F00203FB6148
:10496000FB6968E07B681B68374A934234D10023B7
:10497000BB61334B1B6C324A43F004031364304B6E
:104980001B6C03F00403BB61BB6900237B612C4BF0
:104990001B6B2B4A43F002031363294B1B6B03F081
:1049A00002037B617B6940237B620223BB6202239B
:1049B000FB6203233B6302237B6307F12403194655
:1049C000224801F0EDF8002205211E2001F02CF80C
:1049D0001E2001F045F82EE07B681B681C4A9342BC
:1049E0000ED100233B61164B5B6C154A43F48033B8
:1049F0005364134B5B6C03F480333B613B691AE0F7
:104A00007B681B68134A934215D10023FB600C4B53
:104A10005B6C0B4A43F400335364094B5B6C03F447
:104A20000033FB60FB6800220521192000F0FCFF29
:104A3000192001F015F800BF3837BD4680BD00BF12
:104A4000003802400004004000080040000402401A
:104A5000004001400044014080B58CB000AF786058
:104A600007F11C0300221A605A609A60DA601A612A
:104A70007B681B68B3F1804F3ED10023BB61414B83
:104A80001B6B404A43F0010313633E4B1B6B03F067
:104A90000103BB61BB6900237B613A4B1B6B394A45
:104AA00043F002031363374B1B6B03F002037B617C
:104AB0007B6948F20203FB6102233B6200237B62B5
:104AC0000023BB620123FB6207F11C0319462E4839
:104AD00001F066F84FF48063FB6102233B62002320
:104AE0007B620023BB620123FB6207F11C031946B2
:104AF000264801F055F840E07B681B68244A934241
:104B00003BD100233B611F4B1B6B1E4A43F001034B
:104B100013631C4B1B6B03F001033B613B690023D8
:104B2000FB60184B1B6B174A43F002031363154BD2
:104B30001B6B03F00203FB60FB68C023FB610223D5
:104B40003B6200237B620023BB620223FB6207F10E
:104B50001C0319460C4801F023F80323FB610223D0
:104B60003B6200237B620023BB620223FB6207F1EE
:104B70001C031946054801F013F800BF3037BD4645
:104B800080BD00BF00380240000002400004024027
:104B90000004004080B58EB000AF786007F12403B8
:104BA00000221A605A609A60DA601A617B681B689A
:104BB000504A934235D100233B624F4B5B6C4E4AC7
:104BC00043F0100353644C4B5B6C03F010033B62E7
:104BD0003B6A0023FB61484B1B6B474A43F00103D0
:104BE0001363454B1B6B03F00103FB61FB694FF43F
:104BF000C0637B620223BB620023FB6203233B632F
:104C000007237B6307F1240319463C4800F0C8FFE3
:104C100000220521252000F007FF252000F020FFBD
:104C200063E07B681B68364A93422CD10023BB614A
:104C3000314B1B6C304A43F4003313642E4B1B6C16
:104C400003F40033BB61BB6900237B612A4B1B6B00
:104C5000294A43F001031363274B1B6B03F0010345
:104C60007B617B690C237B620223BB620023FB62B6
:104C700003233B6307237B6307F1240319461F4883
:104C800000F08EFF31E07B681B681E4A93422CD1F6
:104C900000233B61184B5B6C174A43F020035364BD
:104CA000154B5B6C03F020033B613B690023FB6009
:104CB000114B1B6B104A43F0010313630E4B1B6B2C
:104CC00003F00103FB60FB684FF4C0537B620223D7
:104CD000BB620023FB6203233B6308237B6307F172
:104CE00024031946054800F05BFF00BF3837BD4676
:104CF00080BD00BF001001400038024000000240AB
:104D0000004400400014014080B58CB000AF7860D2
:104D10000023BB6200237B620023BB602E4B5B6CD5
:104D20002D4A43F4802353642B4B5B6C03F48023A4
:104D3000BB60BB6807F10C0207F11003114618466F
:104D400002F07AFD02F064FDB862BB6A234AA2FB5E
:104D500003239B0C013B7B62214B224A1A60204BB0
:104D600040F2E732DA601E4A7B6A53601C4B002235
:104D70001A611B4B00229A60194B00229A61184855
:104D800002F08CFD034687F82F3097F82F30002B68
:104D90001BD1134802F054FE034687F82F3097F8D2
:104DA0002F30002B11D11A2000F05AFE7B680F2BF8
:104DB00008D8002279681A2000F036FE0A4A7B687B
:104DC000136002E0012387F82F3097F82F30184640
:104DD0003037BD4680BD00BF0038024083DE1B4334
:104DE0001C50002000480140A800002080B400AF03
:104DF00000BFFDE780B400AF00BFFDE780B400AFA7
:104E000000BFFDE780B400AF00BFFDE780B400AF96
:104E100000BFFDE780B400AF00BFBD465DF8047B76
:104E2000704780B500AF012001F072F800BF80BD6F
:104E300080B500AF024800F0D8F900BF80BD00BFC8
:104E40007803002080B500AF024803F020F900BFCE
:104E500080BD00BF3405002080B500AF024803F0DC
:104E600016F900BF80BD00BF1C50002080B500AF08
:104E7000024803F00CF900BF80BD00BFA40400206D
:104E800080B500AF024804F0EDF900BF80BD00BF5F
:104E90007C05002080B400AF01231846BD465DF8B4
:104EA000047B704780B582B000AF7860396009F04C
:104EB00009FE034616221A604FF0FF3318460837E2
:104EC000BD4680BD80B582B000AF78604FF0FF3145
:104ED0007868FFF7E7FF00BFFDE780B586B000AF59
:104EE000F860B9607A6000237B610AE0AFF300806C
:104EF0000146BB685A1CBA60CAB21A707B6901339A
:104F00007B617A697B689A42F0DB7B6818461837C8
:104F1000BD4680BD80B586B000AFF860B9607A60EC
:104F200000237B6109E0BB685A1CBA601B781846F5
:104F3000FCF762FE7B6901337B617A697B689A4288
:104F4000F1DB7B6818461837BD4680BD80B483B05E
:104F500000AF78604FF0FF3318460C37BD465DF860
:104F6000047B704780B483B000AF786039603B68E1
:104F70004FF400525A60002318460C37BD465DF8C6
:104F8000047B704780B483B000AF7860012318467B
:104F90000C37BD465DF8047B704780B485B000AF28
:104FA000F860B9607A60002318461437BD465DF892
:104FB000047B704780B586B000AF7860144A154B0B
:104FC000D31A7B617B693B61134B1B68002B02D1B9
:104FD000114B124A1A60104B1A687B6813443A69E5
:104FE0009A4207D209F06EFD03460C221A604FF078
:104FF000FF3309E0084B1B68FB60074B1A687B68AE
:105000001344054A1360FB6818461837BD4680BD37
:10501000000002200004000064500020104A01201B
:1050200080B400AF064BD3F88830054A43F47003D0
:10503000C2F8883000BFBD465DF8047B704700BFF2
:1050400000ED00E0DFF834D0FFF7EAFF0C480D492F
:105050000D4A002302E0D458C4500433C4188C42D3
:10506000F9D30A4A0A4C002301E013600432A24239
:10507000FBD309F02DFDFDF787F8704700000220F3
:10508000000000207C020020643B01087C0200201C
:10509000104A0120FEE7000080B500AF0E4B1B68F0
:1050A0000D4A43F4007313600B4B1B680A4A43F428
:1050B00080631360084B1B68074A43F480731360D6
:1050C000032000F0A6FC0F20FFF71EFEFFF756FBA3
:1050D0000023184680BD00BF003C024080B400AFF2
:1050E000064B1B781A46064B1B681344044A136090
:1050F00000BFBD465DF8047B704700BFAC000020D8
:105100006850002080B400AF034B1B681846BD46B2
:105110005DF8047B704700BF6850002080B584B004
:1051200000AF7860FFF7EEFFB8607B68FB60FB685C
:10513000B3F1FF3F05D00A4B1B781A46FB681344B6
:10514000FB6000BFFFF7DEFF0246BB68D31AFA68B8
:105150009A42F7D800BF00BF1037BD4680BD00BFE0
:10516000AC00002080B584B000AF78600023FB73F2
:105170007B68002B01D1012333E07B681B6C002B83
:1051800009D17868FFF726FB7B6800225A647B68A8
:10519000002283F83C207B681B6C03F01003002B7B
:1051A00018D17B681B6C23F4885323F0020343F06F
:1051B00002027B681A64786800F078FA7B68002243
:1051C0005A647B681B6C23F0030343F001027B6885
:1051D0001A6401E00123FB737B68002283F83C2002
:1051E000FB7B18461037BD4680BD80B586B000AF4A
:1051F000786000237B6100233B617B681B681B6830
:10520000FB607B681B685B68BB60FB6803F00203A4
:105210007B61BB6803F020033B617B69002B49D0B5
:105220003B69002B46D07B681B6C03F01003002BFE
:1052300005D17B681B6C43F400727B681A647B6841
:105240001B689B6803F04053002B2BD17B681B7EAF
:10525000002B27D17B681B68DB6A03F47003002BEB
:1052600006D07B681B689B6803F48063002B19D110
:105270007B681B685A687B681B6822F020025A60B2
:105280007B681B6C23F480727B681A647B681B6CE0
:1052900003F48053002B05D17B681B6C43F00102A3
:1052A0007B681A64786800F0B0F87B681B686FF060
:1052B00012021A60FB6803F004037B61BB6803F011
:1052C00080033B617B69002B57D03B69002B54D096
:1052D0007B681B6C03F01003002B05D17B681B6CF3
:1052E00043F400527B681A647B681B689B6803F474
:1052F0004013002B39D17B681B689B6B03F4401370
:10530000002B06D07B681B689B6803F48063002B2E
:105310002BD17B681B685B6803F48063002B24D16E
:105320007B681B689B6803F04053002B1DD17B6892
:105330001B7E002B19D17B681B685A687B681B6831
:1053400022F080025A607B681B6C23F480527B68D9
:105350001A647B681B6C03F48073002B05D17B6897
:105360001B6C43F001027B681A64786800F09AFABB
:105370007B681B686FF00C021A60FB6803F0010386
:105380007B61BB6803F040033B617B69002B17D056
:105390003B69002B14D07B681B681B6803F001037A
:1053A000012B0DD17B681B6C43F480327B681A643F
:1053B000786800F034F87B681B686FF001021A60AF
:1053C000FB6803F020037B61BB6803F080633B61F3
:1053D0007B69002B15D03B69002B12D07B685B6C7E
:1053E00043F002027B685A647B681B686FF02002FE
:1053F0001A60786800F01DF87B681B686FF0200267
:105400001A6000BF1837BD4680BD80B483B000AFBE
:10541000786000BF0C37BD465DF8047B704780B4F0
:1054200083B000AF786000BF0C37BD465DF8047BE9
:10543000704780B483B000AF786000BF0C37BD46C2
:105440005DF8047B7047000080B485B000AF7860E1
:1054500039600023BB607B6893F83C30012B01D19D
:10546000022313E17B68012283F83C203B681B6820
:10547000092B25D97B681B68D9683B681B689BB2E0
:105480001A4613465B0013441E3B072202FA03F33D
:10549000DA437B681B680A40DA607B681B68D9685E
:1054A0003B689A683B681B689BB2184603465B00E2
:1054B00003441E3B9A407B681B680A43DA6022E083
:1054C0007B681B6819693B681B689BB21A461346C8
:1054D0005B001344072202FA03F3DA437B681B687C
:1054E0000A401A617B681B6819693B689A683B68C7
:1054F0001B689BB2184603465B0003449A407B68D6
:105500001B680A431A613B685B68062B24D87B68DA
:105510001B68596B3B685A6813469B001344053B54
:105520001F2202FA03F3DA437B681B680A405A63BE
:105530007B681B68596B3B681B689BB218463B68CD
:105540005A6813469B001344053B00FA03F27B683C
:105550001B680A435A634CE03B685B680C2B24D8F9
:105560007B681B68196B3B685A6813469B001344A1
:10557000233B1F2202FA03F3DA437B681B680A40CD
:105580001A637B681B68196B3B681B689BB21846E3
:105590003B685A6813469B001344233B00FA03F20E
:1055A0007B681B680A431A6323E07B681B68D96A1F
:1055B0003B685A6813469B001344413B1F2202FA82
:1055C00003F3DA437B681B680A40DA627B681B6876
:1055D000D96A3B681B689BB218463B685A681346F9
:1055E0009B001344413B00FA03F27B681B680A43AB
:1055F000DA62294BFB607B681B68284A93420FD113
:105600003B681B68122B0BD1FB685B6823F400021C
:10561000FB685A60FB685B6843F48002FB685A6071
:105620007B681B681D4A93422BD13B681B681C4A50
:10563000934203D03B681B68112B22D1FB685B6847
:1056400023F48002FB685A60FB685B6843F4000245
:10565000FB685A603B681B68114A934211D1114B99
:105660001B68114AA2FB03239A0C13469B001344A8
:105670005B00BB6002E0BB68013BBB60BB68002B0A
:10568000F9D17B68002283F83C20002318461437A8
:10569000BD465DF8047B70470023014000200140B7
:1056A00012000010A400002083DE1B4380B485B0EC
:1056B00000AF7860794BFB60FB685B6823F4403295
:1056C000FB685A60FB685A687B685B681A43FB6832
:1056D0005A607B681B685A687B681B6822F480727A
:1056E0005A607B681B6859687B681B691A027B6873
:1056F0001B680A435A607B681B685A687B681B6892
:1057000022F040725A607B681B6859687B689A680F
:105710007B681B680A435A607B681B689A687B68D1
:105720001B6822F400629A607B681B6899687B683A
:10573000DA687B681B680A439A607B689B6A584AF0
:10574000934222D07B681B689A687B681B6822F0B2
:1057500070629A607B681B6899687B689A6A7B684C
:105760001B680A439A607B681B689A687B681B68A1
:1057700022F040529A607B681B6899687B68DA6AFD
:105780007B681B680A439A600FE07B681B689A6815
:105790007B681B6822F070629A607B681B689A685D
:1057A0007B681B6822F040529A607B681B689A688D
:1057B0007B681B6822F002029A607B681B6899680C
:1057C0007B681B7E5A007B681B680A439A607B6873
:1057D00093F82030002B1BD07B681B685A687B68CD
:1057E0001B6842F400625A607B681B685A687B68D9
:1057F0001B6822F460425A607B681B6859687B68AA
:105800005B6A013B5A037B681B680A435A6007E0E6
:105810007B681B685A687B681B6822F400625A60C8
:105820007B681B68DA6A7B681B6822F47002DA62A4
:105830007B681B68D96A7B68DB69013B1A057B685A
:105840001B680A43DA627B681B689A687B681B687E
:1058500022F400729A607B681B6899687B6893F8F1
:1058600030305A027B681B680A439A607B681B6869
:105870009A687B681B6822F480629A607B681B6868
:1058800099687B685B699A027B681B680A439A6027
:1058900000BF1437BD465DF8047B7047002301400C
:1058A0000100000F80B483B000AF786000BF0C37F8
:1058B000BD465DF8047B704780B485B000AF78606A
:1058C0007B6803F00703FB600C4BDB68BB60BA68C6
:1058D0004FF6FF031340BB60FB681A02BB6813431B
:1058E00043F0BF6343F40033BB60044ABB68D3603A
:1058F00000BF1437BD465DF8047B704700ED00E043
:1059000080B400AF044BDB681B0A03F007031846A2
:10591000BD465DF8047B704700ED00E080B483B0C5
:1059200000AF0346FB7197F90730002B0BDBFB79C7
:1059300003F01F02074997F907305B09012000FABD
:1059400002F241F8232000BF0C37BD465DF8047B0E
:10595000704700BF00E100E080B483B000AF0346B1
:105960003960FB7197F90730002B0ADB3B68DAB22C
:105970000C4997F907301201D2B20B4483F8002387
:105980000AE03B68DAB20849FB7903F00F03043BF5
:105990001201D2B20B441A7600BF0C37BD465DF837
:1059A000047B704700E100E000ED00E080B489B0C6
:1059B00000AFF860B9607A60FB6803F00703FB6131
:1059C000FB69C3F10703042B28BF0423BB61FB69F8
:1059D0000433062B02D9FB69033B00E000237B6103
:1059E0004FF0FF32BB6902FA03F3DA43BB681A4097
:1059F0007B699A404FF0FF317B6901FA03F3D94389
:105A00007B680B40134318462437BD465DF8047B82
:105A1000704780B582B000AF78607868FFF74CFFC0
:105A200000BF0837BD4680BD80B586B000AF0346D5
:105A3000B9607A60FB7300237B61FFF761FF7861D7
:105A40007A68B9687869FFF7B1FF024697F90F30B5
:105A500011461846FFF780FF00BF1837BD4680BDCE
:105A600080B582B000AF0346FB7197F90730184646
:105A7000FFF754FF00BF0837BD4680BD80B584B036
:105A800000AF78607B689B6DFB60FFF73BFBB86005
:105A90007B6893F83530DBB2022B08D07B6880221C
:105AA0005A657B68002283F83420012352E07B682A
:105AB0001B681A687B681B6822F016021A607B68F4
:105AC0001B685A697B681B6822F080025A617B68F8
:105AD0001B6C002B03D17B689B6C002B07D07B6871
